:020000040800F2
:10200000B0060020C1280008493800084D380008F3
:102010005138000855380008593800080000000001
:102020000000000000000000000000005D38000813
:1020300061380008000000006538000869380008B1
:10204000BD280008BD280008BD2800086D3800081C
:10205000BD280008BD280008BD280008BD280008CC
:10206000BD280008BD280008BD280008613B000805
:10207000BD280008BD280008BD280008053C000850
:10208000BD280008BD280008BD2800080000000089
:10209000000000000000000000000000813900087E
:1020A000BD280008F5380008BD280008BD28000834
:1020B000BD280008BD28000829390008BD280008EF
:1020C000BD280008BD280008BD280008BD2800085C
:1020D000BD280008BD280008BD280008BD2800084C
:1020E000BD280008BD280008BD2800080000000029
:1020F00000000000000000000000000000000000E0
:1021000000000000000000000000000000000000CF
:102110000000000000000000BD280008BD280008E5
:102120005FF808F108B545F2CC60C0F6000000F099
:10213000F7FC01F0B9FF4FF47E44C0F601042046DD
:1021400002F04AF820464DF65A71CAF2FD5102F0EB
:1021500005F801F0B9FFBFF34F8F4FF46D42CEF297
:102160000002D16801F4E0614FF00403C0F2FA53B9
:102170000B43D360BFF34F8FFEE700BF70B586B04F
:1021800072B64FF03D004FF0010102F0AFF94FF48D
:102190008060C0F230004FF0010102F0ADF84FF462
:1021A0008465ADF808504FF010038DF80B304FF0F8
:1021B00001068DF80A604FF48054C4F201042046F1
:1021C00002A902F029F82046294602F08DF820469F
:1021D0004FF0200102F086F84FF0F005ADF80850FE
:1021E0004FF028038DF80B308DF80A604FF400642F
:1021F000C4F20104204602A902F00EF82046294646
:1022000002F072F8A36813F0200F01D0FFF78AFFE5
:1022100001F0DAFA00F098FF01F004F900F03CF95F
:1022200000F0CCFC4FF46145CEF200054FF00803FE
:102230002B604FF0E00385F803334FF0C0504FF0B0
:10224000010102F065F94FF0010002F0B3F84FF41C
:10225000407002F0BFF84FF0010002F0C3F802F046
:10226000D1F902F0DBF902F0CDF94FF0010001469F
:1022700002F072F902F0C6F94FF2234002F0B2F90F
:1022800002F0C0F94FF0000002F09CF902F0BAF938
:102290004FF480404FF0010102F028F94FF058044C
:1022A000C4F20204204601F0BFFD236823F00103BD
:1022B000236043F60403C4F20103A36040F28C13CD
:1022C000C2F20003E360236823F0100323604FF0A1
:1022D00004036360226822F040022260226842F018
:1022E00080022260226822F440722260226822F476
:1022F00040622260226842F020022260226842F49A
:10230000805222604FF48062ADF804208DF80730CF
:102310004FF40066C4F2010630460DEB030101F0F4
:102320007BFF4FF40073ADF804304FF003038DF8DA
:1023300006304FF018038DF80730304601A901F040
:102340006BFF4FF4E13302934FF00003ADF80C3014
:10235000ADF80E30ADF81030ADF814304FF00C037E
:10236000ADF812304FF46056C4F20106304602A9AF
:1023700002F078F930464FF040014FF0010202F0D0
:10238000F7F930464FF0010102F0E2F920464FF034
:10239000010101F029FE20464FF002014FF0010239
:1023A00001F02EFE4FF400432B604FF0D00385F870
:1023B0000F334FF48052C4F20202936943F4006376
:1023C00093614FF43053C4F2010340F65F11198555
:1023D00041F288319985998989B241F00101998149
:1023E000198889B241F0810119804FF000732B6088
:1023F0004FF0A00385F81933D36943F00403D36188
:102400004FF40063C4F200034FF017021A8502F57F
:1024100074729A854FF080021A804FF001029A81FF
:102420004FF080432B604FF0100385F81E3345F6C4
:102430002020C0F6000000F073FB4FF4FA6000F0BB
:102440002FFA00F085F962B606B070BD08B54FF4FA
:102450008050C4F201004FF0200101F041FF72B63C
:102460000C4800F05DFB4FF48054C4F201044FF4BB
:1024700080664FF4FA752046314601F031FF284658
:1024800000F00EFA2046314601F02CFF284600F0FD
:1024900007FAF0E7E8560008F0B587B04FF440407F
:1024A00001F08EFF4FF400704FF0010102F01EF8B2
:1024B0004FF00203ADF814304FF000048DF81740D0
:1024C0004FF40060C4F2010005A901F0A5FE0094DC
:1024D0008DF804404FF001058DF805504FF460234E
:1024E000029303948DF810504FF41054C4F2010479
:1024F0002046694601F0D6FB204629462A464FF081
:10250000070301F02DFC2046294601F0F1FB20468F
:1025100001F006FC4FF41054C4F20104204601F00F
:1025200005FC0028FAD14FF41050C4F2010001F06C
:1025300001FC4FF41054C4F20104204601F000FCE9
:102540000028FAD14FF41050C4F201004FF00101FD
:1025500001F0FAFB4FF064074FF000064FF41054FF
:10256000C4F201044FF002052046294601F056FC52
:102570000028F9D0204601F04DFC361807F1FF3352
:1025800013F0FF07F0D148F21F53C5F2EB13A3FB82
:1025900006234FEA53144FF41055C4F201052846A0
:1025A0004FF0000101F0D0FB28464FF0000101F090
:1025B0009FFB284601F03CFB4FF400704FF00001F8
:1025C00001F094FFB4F5FA7F07D240F29413C2F2FF
:1025D00000034FF000029A7035E0A4F2F51240F2C9
:1025E000E6339A4207D840F29413C2F200034FF048
:1025F0001E029A7027E0A4F2DD5240F212539A4272
:1026000007D840F29413C2F200034FF028029A70E8
:1026100019E0A4F6F12240F2BA239A4207D840F218
:102620009413C2F200034FF032029A700BE0A4F64A
:10263000AD54B4F5957F40F29413C2F2000394BFF9
:102640003C2246229A7007B0F0BD00BF70B540F240
:102650009413C2F200039B681C8AE5B245F22C7009
:10266000C0F6000000F05CFA002D18BF002C32D03C
:102670004FEA142440F29413C2F200031C7605F1D1
:10268000FF35EDB29A68197E45EA01211182187E64
:1026900040F20004C2F2000404F1020631464FF099
:1026A000030200F0E5F945F25C70C0F6000000F0AE
:1026B00037FA204600F034FA284631464FF003023C
:1026C00000F0D6F945F27C70C0F6000000F028FA60
:1026D000204600F025FA40F29413C2F200031A7E5D
:1026E0009B8A9BB29A4229D240F29413C2F2000311
:1026F0001969187EDA6831F8100000EB800102EBEE
:1027000081029A601A7E02F10102D2B21A7640F278
:102710000004C2F2000404F102014FF0030200F0D1
:10272000A7F94FF00003637145F29470C0F6000002
:1027300000F0F6F9204600F0F3F970BD034BDA68BB
:102740009A604FF000021A76FFF780FE9401002095
:1027500070B54FF0000445F61846C0F60006E5B225
:1027600000F0E8FFA35D83421DD140F22403C2F2D2
:10277000000353F82420117840F29413C2F20003AE
:102780001970517859701179197151795971D1783D
:10279000D970916899609168D96011691961928ABC
:1027A00092B29A8206E005F10105EDB204F101044E
:1027B0001D2CD4D1012D15D940F20004C2F2000421
:1027C000284604F102014FF0030200F051F945F2EE
:1027D000AC70C0F6000000F0A3F9204600F0A0F9AC
:1027E000FFF734FE40F20004C2F2000404F10206D6
:1027F000284631464FF0030200F03AF945F2E47002
:10280000C0F6000000F08CF9204600F089F940F293
:102810009413C2F20003987831464FF0040200F09E
:1028200027F945F61000C0F6000000F079F92046BF
:1028300000F076F9FFF70AFF70BD00BF08B545F656
:102840002C00C0F6000000F06BF900F03BFD00F03A
:102850000BFF08BD10B5044645F65400C0F6000055
:1028600000F05EF940F29413C2F200039B68D8684E
:10287000201810BD40F29410C2F20000704700BF53
:1028800000487047AC01002082B04FEA4000019040
:10289000019B03F1FF320192002BF9D102B0704786
:1028A00082B040F6AC5303FB00F00190019B03F1B2
:1028B000FF320192002BF9DC02B07047FEE700BF47
:1028C00010B5154B154A9A4217D202F10403144C65
:1028D000E41A24F0030404F104044FF0000340F26E
:1028E0000000C2F2000045F63841C0F600015A5817
:1028F0001A5003F10403A342F9D10A480A494FF0E0
:1029000000028842B8BF40F8042BFADB00F00EF852
:1029100000F02AFB10BD00BF8C0100200000002049
:102920008F0100208C010020AC02002082B04FF407
:102930008053C4F202031A6842F001021A60596817
:102940004FF00002CFF6FF020A405A601A6822F0E8
:10295000847222F480321A601A6822F480221A608B
:102960005A6822F4FE025A604FF41F029A604FF038
:102970000002DA62009201921A6842F480321A6010
:102980004FF48052C4F20202136803F4003301933F
:10299000009B03F101030093019B1BB9009BB3F55E
:1029A000A06FF1D14FF48053C4F202031B6813F4FB
:1029B000003F14BF012300230193019B012B32D15F
:1029C0004FF48053C4F202035A685A605A685A603E
:1029D0005A685A605A6822F47C125A605A6842F463
:1029E00098125A601A6842F080721A604FF480524E
:1029F000C4F20202136813F0007FFBD04FF480533F
:102A0000C4F202035A6822F003025A605A6842F084
:102A100002025A604FF48052C4F20202536803F07B
:102A20000C03082BFAD14FF46D43CEF200034FF4A0
:102A30000052C0F600029A6002B07047F8B50E4628
:102A4000A1B100F1FF374FF46054C4F201044FF01C
:102A50004005204617F8011F01F096FE2046294642
:102A600001F098FE0028F9D0013EF2D1F8BD00BF78
:102A70002DE9F00300AF02F1070303F4FC73ADEBA3
:102A8000030DEC4602F101054FF001034FF0000485
:102A900003EB83034FEA430304F10104AC42F7DB89
:102AA00003F1FF33834238BF1846551E34D4944493
:102AB0004FF000084FF0010966460CF8018C002D1C
:102AC0000ADD4B46424603EB83034FEA430302F120
:102AD0000102AA42F7D100E04B461A4698420ED3B3
:102AE00016F8013C03F10103DBB200E02346801A33
:102AF00003F10104E4B29042F8D206F8013C0CF173
:102B0000FF3C16F8013C03F1300301F8013B05F1ED
:102B1000FF35B5F1FF3FCFD1BD46BDE8F0037047AB
:102B200070B584B0064645F60C13C0F600036C463B
:102B30000FCB07C4237001F03BFD4BF2C533C9F244
:102B4000A213A3FB00234FEAD3244FF4616202FBDC
:102B50001404C3F3C72001A94FF00202FFF788FF56
:102B600048F68905C8F68805A5FB04354FEA5515D2
:102B7000E8B20DF107014FF00202FFF779FFC5EB54
:102B80000515A4EB8500C0B20DF10A014FF0020259
:102B9000FFF76EFF4FF000038DF80C30304602F067
:102BA00065FD01463046FFF749FF684602F05EFDCD
:102BB00001466846FFF742FF04B070BDF0B593B020
:102BC0004FF48077ADF844704FF010038DF8473024
:102BD0004FF001048DF846404FF40066C4F2010640
:102BE000304611A901F018FB3046394601F07AFB56
:102BF0004FF4404001F0E4FB2046214601F064FC24
:102C00004FF40070214601F071FC4FF00403ADF861
:102C100044304FF000058DF84750304611A901F0BF
:102C2000FBFA4FF00806C4F20206304601F0FCF849
:102C300042F24C43C4F20103019340F2B013C2F2DA
:102C40000003029303954FF06403049305954FF03E
:102C50008003069307974FF4806308934FF0200397
:102C600009930A950B95304601A901F09DF930466C
:102C7000214601F0B9F930464FF00201224601F039
:102C8000BFF94FF46143CEF200034FF0F00283F836
:102C90000B230C958DF834508DF835404FF460239C
:102CA0000E930F958DF840404FF41055C4F2010576
:102CB00028460CA900F0F6FF28464FF002012246F4
:102CC0004FF0070301F04CF82846214601F01CF8AC
:102CD0002846214601F00CF8284601F021F84FF46F
:102CE0001054C4F20104204601F020F80028FAD163
:102CF0004FF41050C4F2010001F01CF84FF41054CE
:102D0000C4F20104204601F01BF80028FAD14FF468
:102D10001050C4F201004FF0010101F015F84FF41A
:102D20000060C4F201004FF4807101F0DDFA13B0CD
:102D3000F0BD00BF70B586B001900D46C4B2C0F3BF
:102D4000072640F60D2302934FF0000303930493EC
:102D5000ADF814308DF8163040F2B013C2F2000313
:102D600093F8C830A34231D181BB40F2B013C2F214
:102D7000000393F8C830002B00F0818040F2B013BC
:102D8000C2F2000393F8CA2093F8C93003F1FF336D
:102D90009A4207DA4FF40063C4F201034FF48072E1
:102DA0001A616CE040F2B013C2F2000393F8CA203B
:102DB00093F8C93003F101039A4260DD4FF40063D8
:102DC000C4F201034FF480725A6158E0A4B1FFF7D6
:102DD00051FD83782BB3FFF74DFD86784FF46143A7
:102DE000CEF200034FF400621A6045F61C10C0F6E4
:102DF0000000FFF795FE14E045F63810C0F600001D
:102E0000FFF78EFE4FF40063C4F201034FF48072AB
:102E10005A614FF46143CEF200034FF40062C3F8ED
:102E2000802040F2B013C2F2000383F8C84083F858
:102E3000C960B3F8CC30B3F5FA7F01D0012D24D1AD
:102E400040F2B013C2F200034FF00002A3F8CC200E
:102E50004FF40063C4F20103D86800F480700DF1F0
:102E60000A014FF00402FFF703FE45F65410C0F6C6
:102E70000000FFF755FE02A8FFF752FE05E0044BE5
:102E8000B3F8CC30B3F5FA7FDAD006B070BD00BF2E
:102E9000B001002010B584B0044640F60D23019324
:102EA0004FF000030293ADF80C3040F2B013C2F2C1
:102EB0000003B3F8CE3003F101039BB2B3F5FA7F00
:102EC00006D240F2B012C2F20002A2F8CE3035E0D3
:102ED00040F2B013C2F200034FF00002A3F8CE207C
:102EE00093F8C9000DF106014FF00302FFF7C0FD92
:102EF00045F69010C0F60000FFF712FE01A8FFF79C
:102F00000FFE204601F0B0FD4FF000024FF000032D
:102F1000C4F2540301F026FF02F00CF8C0B20DF128
:102F200006014FF00402FFF7A3FD45F6A810C0F616
:102F30000000FFF7F5FD01A8FFF7F2FD204601F0C4
:102F400093FD4FF000024FF00003C4F2540301F070
:102F500009FF01F0EFFF40F2B013C2F2000383F863
:102F6000CA0004B010BD00BF2DE9F041FFF7DEFC40
:102F7000FFF704F94FF48050C4F201004FF4806170
:102F800001F0AEF940F21004C2F2000440F28025D4
:102F9000C2F200054FF05807C4F2020740F28C1845
:102FA000C2F2000801F02EFB01F002FB064601F020
:102FB00029FB237823B13046FFF74CFC28600AE058
:102FC0002B689E4207D9FFF739FCFFF73FFB4FF014
:102FD0000103237020E0FFF74DFC21788368DA7845
:102FE000187942EA0022587942EA004000F078FA63
:102FF000FFF740FC217883681868FFF79BFEFFF716
:1030000039FC21788368D3F8060000F0A7F923780B
:1030100013B14FF0000323702B79012BC2D14FF075
:1030200000032B713B6823F001033B604FF0040267
:103030007A603B6843F001033B60404645F6C411AB
:10304000C0F6000102F0E0FA78B901F0DBFA01F015
:10305000AFFA00F1FF30286001F0D4FA45F6CC1049
:10306000C0F60000FFF75CFD9CE7404645F6F8110E
:10307000C0F600014FF0040202F0C6FA002891D019
:10308000404645F60021C0F600014FF0030202F071
:10309000BBFAB8B945F60820C0F60000FFF740FDBE
:1030A000BFF34F8F4FF46D42CEF20002D16801F4AE
:1030B000E0614FF00403C0F2FA530B43D360BFF357
:1030C0004F8FFEE7404645F62421C0F600014FF041
:1030D000040202F099FA00287FF464AFFFF722F8A7
:1030E00060E700BF82B0C2B240F28823C2F20003A0
:1030F0001A70C0F307225A704FEA1040588002B08D
:10310000704700BFF8B504460E46154640F28823C6
:10311000C2F20003586802F037F80746204602F072
:103120002FF80146384601F079FF314602F034F9B4
:1031300002F044FA012D40F28823C2F2000312BFCC
:103140005C6000225A60F8BD2DE9F04184B04FF474
:103150000064C4F2010420464FF4006101F0C2F89B
:1031600020464FF4104101F0BDF84FF41846ADF879
:103170000C604FF010088DF80F804FF001058DF8AE
:103180000E50204603A901F047F82046314601F0D1
:10319000ABF84FF44076ADF80C604FF048038DF873
:1031A0000F304FF44067C4F20107384603A901F01D
:1031B00033F828464FF0080101F0DCF828464FF0BC
:1031C000090101F0D7F801964FF000038DF808309F
:1031D0008DF809808DF80A5001A800F01BFF3846D1
:1031E000314601F081F820464FF4006101F07AF891
:1031F00020464FF4104101F075F84FF46143CEF2D0
:1032000000034FF0200283F8172304B0BDE8F081DB
:1032100040F28820C2F20000704700BF70B584B051
:10322000ADF806004FF0000403940294FFF7F0FF9E
:10323000BDF80660B6B2408801F0A2FF05463046F0
:1032400001F09EFF0146284601F0E8FE4FF078515C
:1032500001F0EEFF02F0B2F90390BDF8060080B273
:103260004CF6CD41C3F64C712246FFF74BFF02905E
:1032700040F28823C2F200039968039A8A189A6080
:103280009968029A8A189A609B68B3F5167FA1BF65
:1032900040F28823C2F200034FF416729A6004B021
:1032A00070BD00BF40F28823C2F200039B682BB1BF
:1032B00040F28823C2F20003986870474FF0010083
:1032C000704700BF08B5FFF7A3FF428840F288238C
:1032D000C2F200039A604FF000004FF000014FF07F
:1032E0000102FFF70FFF08BD30B583B04FF00004B7
:1032F0008DF804408DF80540ADF80640FFF7E2FF79
:103300004FF40065C4F2010528464FF4006100F057
:10331000E9FF40F28823C2F200031C704FF0640002
:10332000FFF7BEFA28464FF4104100F0DBFF40F2F1
:103330009824C2F200044FF0640523889BB2002B4E
:10334000FBD12846FFF7ACFA23889BB2002BF4D1BF
:103350000198FFF7C7FE03B030BD00BF30B585B0A0
:103360000190C2B2C0F3072440F28823C2F20003E6
:103370001B78934208D140F28823C2F200035B78A5
:10338000A34201D100294AD0002A46D0019B0393D1
:1033900040F28823C2F200031B7843B140F2882335
:1033A000C2F200035B789C4201D0FFF79DFF74B925
:1033B0004FF40065C4F2010528464FF4004100F0C7
:1033C0008FFF28464FF4805100F08CFF0DE04FF442
:1033D0000065C4F2010528464FF4004100F082FF69
:1033E00028464FF4805100F07BFF4FF0C800FFF7F4
:1033F00057FA8DF80D400398FFF774FE4FF4806381
:10340000C4F201034FF400725A614FF46143CEF2EB
:1034100000034FF400021A6001E0FFF765FF05B0FA
:1034200030BD00BF2DE9F04383B04FF48047ADF8C5
:1034300004704FF010048DF807404FF001098DF82B
:1034400006904FF40065C4F20105284601A900F07A
:10345000E3FE2846394600F045FF40F20446ADF849
:1034600004608DF807404FF003038DF806304FF4E9
:103470004064C4F20104204601A900F0CDFE2046BC
:10348000314600F02DFF4FF48078ADF804804FF006
:1034900028038DF807308DF80690204601A900F02A
:1034A000BBFE2846394600F01FFF2046314600F09B
:1034B0001BFF2046414600F017FF03B0BDE8F08334
:1034C00082B0C2B240F29423C2F200031A70C0F379
:1034D00007225A70C0F30740987002B0704700BFCF
:1034E00030B587B00190C2B2C0F3074440F60D2357
:1034F000C0F2200302934FF0000303930493ADF84E
:1035000014308DF8163040F29423C2F200031B7879
:10351000934209D140F29423C2F200039B78A34264
:1035200002D1002900F08980032A4AD8DFE802F09E
:103530000211263B4FF44060C4F2010040F2044106
:1035400000F0CEFE45F65020C0F60000FFF7E8FA86
:1035500037E04FF44065C4F2010528464FF00401FE
:1035600000F0C0FE28464FF4806100F0B9FE45F639
:103570007020C0F60000FFF7D3FA22E04FF4406558
:10358000C4F2010528464FF0040100F0A9FE2846C8
:103590004FF4806100F0A6FE45F68C20C0F60000D6
:1035A000FFF7BEFA0DE04FF44060C4F2010040F2B4
:1035B000044100F097FE45F6A820C0F60000FFF792
:1035C000AFFA14B1012C11D108E04FF40060C4F23D
:1035D00001004FF4804100F085FE07E04FF40060E9
:1035E000C4F201004FF4804100F07AFE0198FFF729
:1035F00067FF40F29424C2F2000420780DF10A0122
:103600004FF00402FFF734FA45F6C420C0F600007C
:10361000FFF786FA02A8FFF783FA45F6DC20C0F62A
:103620000000FFF77DFA60780DF10A014FF0040207
:10363000FFF71EFA02A8FFF773FA07B030BD00BF0C
:1036400082B04FF00003ADF806304FF48053C4F25F
:1036500001039B6803F480739BB2ADF80630BDF89C
:10366000060080B202B0704710B582B04FF0000380
:103670008DF804308DF805308DF8063040F2942333
:10368000C2F200031B785BB340F29423C2F2000342
:103690005B78012B24D145F61830C0F60000FFF707
:1036A0003FFAFFF7CDFFA0B945F63830C0F600006D
:1036B000FFF736FAFFF7DEF88468FFF7E1F80378E2
:1036C00003F1FF339BB24FEA032343F0010323824C
:1036D0002EE045F67430C0F60000FFF721FA22E034
:1036E00040F29423C2F200031B78B3B940F2942352
:1036F000C2F200035B78012B0FD145F6A030C0F673
:103700000000FFF70DFAFFF79BFF60B945F6C830E0
:10371000C0F60000FFF704FA05E045F6FC30C0F6FD
:103720000000FFF7FDF901984FF00101FFF7D8FE07
:1037300002B010BD10B582B04FF44060C4F2010079
:1037400000F0CAFD04464FF48050C4F201004FF06F
:10375000020100F0BBFD4FEA143444EA0010C4B289
:103760008DF807404FF40063C4F201039B6813F027
:10377000100F18BF07201CD19DF807109DF80740B7
:103780009DF807209DF807309DF8070004F001041C
:10379000C1F3C00141EA4401C2F3400241EA82029E
:1037A000C3F3001342EAC303C0F3800043EA0010EE
:1037B000FFE702B010BD00BF4FF44063C4F2010345
:1037C0004FF400621A61704770B582B04FF4006523
:1037D000ADF804504FF010038DF807304FF001069C
:1037E0008DF806604FF44064C4F20104204601A93C
:1037F00000F012FD2046294600F076FDFFF7DCFFC1
:103800004FF47045ADF804504FF028038DF80730A1
:103810008DF80660204601A900F0FEFC20462946EE
:1038200000F062FD4FF00205ADF804504FF48054F3
:10383000C4F20104204601A900F0EEFC204629460E
:1038400000F052FD02B070BD704700BFFEE700BF40
:10385000FEE700BFFEE700BFFEE700BF704700BF06
:10386000704700BF704700BF704700BF08B54FF4F6
:103870002053C4F200039A8892B21B8813F0010F00
:1038800037D012F0010F34D04FF46143CEF2000371
:103890004FF00802C3F880214FF42052C4F2000216
:1038A000938823F001034FEA03434FEA13439380C5
:1038B0004FF42052C4F20002938803F020039BB21D
:1038C000002BF9D000F074FE45F27F13C0F2010323
:1038D000984207D100F096FE4FF0000000F072FE13
:1038E00000F090FE40F28623C2F200034FF0010286
:1038F0001A7008BD10B54FF43052C4F20102138A99
:1039000023F001034FEA03434FEA1343138240F2CB
:103910009824C2F20004208880B2FFF77FFC4FF0A9
:103920000003238010BD00BF70B54FF40060C4F2E7
:1039300000004FF0010100F089FEF8B14FF400647F
:10394000C4F20004238A23F001034FEA03434FEA41
:10395000134323824FF40065C4F201054FF400665F
:103960002E614FF06400FEF78FFF6E61238823F015
:1039700001034FEA03434FEA1343238070BD00BFA6
:1039800010B54FF48063C4F201031A685B6913F445
:10399000007F00F0C48012F4007F00F0C0804FF47C
:1039A0008063C4F201034FF400725A61FFF730FCE8
:1039B0000378012B40F09D804FF40063C4F20103B3
:1039C0004FF400625A6140F27413C2F200031B7894
:1039D000012B08D0FFF766FC40F29823C2F20003E7
:1039E0005B68984250D040F27413C2F200034FF06B
:1039F00000021A70FFF756FC40F29823C2F200034F
:103A00005860002818BFB0F57A7F05DBFFF700FC8F
:103A10004FF00003037010BD01F0B6FB01F024F875
:103A200002460B464FF000004FF48041C4F28F0174
:103A300001F098F902460B464FF000004FF00001EC
:103A4000C4F2220101F08EF902460B464FF000004D
:103A50004FF00001C4F2220100F0A6FE01F08AFA44
:103A600004464FF0824101F09FFD28B940F29823AF
:103A7000C2F200039C6007E040F29823C2F2000308
:103A80004FF082449C600AE040F29823C2F20003A7
:103A90009C6820464FF0000101F05EFDA8B9204669
:103AA00000F0E2FF2CA3D3E9002301F031F801F08C
:103AB00041FA80B24FF40063C4F2000398851A887B
:103AC00092B242F001021A8029E04FF40062C4F27F
:103AD0000002138823F001034FEA03434FEA134324
:103AE00013804FF40063C4F201034FF400621A61C3
:103AF00015E04FF46143CEF200034FF40002C3F827
:103B000080204FF40063C4F201034FF400625A6155
:103B100040F27413C2F200034FF001021A704FF426
:103B20008063C4F201031A685B6913F4807F12D0CA
:103B300012F4807F0FD04FF48063C4F201034FF47E
:103B400080725A6140F29823C2F200031A8802F18F
:103B5000010292B21A8010BD0000000000388F40B0
:103B600070B54FF00003C4F202031B6813F0020F9C
:103B700040D04FF000044FF0000540F2B016C2F202
:103B8000000636F8140080B201F0FAFA0146284621
:103B900001F046FA054604F10104642CF1D14FF01E
:103BA0000001C4F2C82101F0F7FB014640F298235E
:103BB000C2F200039A8902F1010292B29A81092AA3
:103BC00010D91C4618694FF00001C4F2201101F011
:103BD000E3FBFFF75FF94FF00003A3814FF0000311
:103BE000236107E040F29824C2F20004206901F04A
:103BF00017FA20614FF00003C4F202034FF00102F4
:103C00005A6070BD4FF00003C4F202031B6813F446
:103C1000003F1FBF40F28423C2F2000301221A704A
:103C20004FF00003C4F202034FF480325A60704731
:103C300008B54FF41053C4F2010398420CD14FF46D
:103C400000704FF0010100F075FC4FF400704FF070
:103C5000000100F06FFC08BD4FF42053C4F20103D3
:103C600098420CD14FF480604FF0010100F062FCEB
:103C70004FF480604FF0000100F05CFC08BD4FF491
:103C80007053C4F2010398420BD14FF400404FF03F
:103C9000010100F04FFC4FF400404FF0000100F034
:103CA00049FC08BD10B4426822F4702222F48072EC
:103CB0000B6813430A7943EA0223436084688A68E5
:103CC000CB681A434FF2FD73CFF6F17323401343D1
:103CD0004A7943EA42038360C26A22F470020B7C91
:103CE00003F1FF33DBB242EA0353C36210BC7047F7
:103CF00021B1836843F0010383607047836823F038
:103D000001038360704700BF21B1836843F480736F
:103D100083607047836823F480738360704700BFBB
:103D2000836843F008038360704700BF8068C0F376
:103D3000C0007047836843F004038360704700BF8E
:103D40008068C0F38000704721B1836843F4A0030A
:103D500083607047836823F4A0038360704700BFCB
:103D600070B4092910D9C66801EB4104A4F11E04FE
:103D70004FF0070505FA04F526EA050503FA04F4F1
:103D800045EA0403C3600DE0066901EB41044FF00E
:103D9000070505FA04F526EA050503FA04F445EAE1
:103DA00004030361062A10D8446B02F1FF3202EBD0
:103DB00082024FF01F0303FA02F324EA030301FA1D
:103DC00002F143EA0102426322E00C2A10D8046B9C
:103DD00002EB8202A2F123024FF01F0303FA02F367
:103DE00024EA030301FA02F143EA010202630FE04D
:103DF000C46A02EB8202A2F141024FF01F0303FAF0
:103E000002F324EA030301FA02F143EA0102C26267
:103E100070BC7047C06C80B2704700BF0368194225
:103E20000CBF00200120704702684FF6FE7313405C
:103E300003604FF00003036043608360C3604FF092
:103E40000803C4F20203984208D14FF00003C4F201
:103E500002035A6842F00F025A6070474FF01C0389
:103E6000C4F20203984208D14FF00003C4F20203E7
:103E70005A6842F0F0025A6070474FF03003C4F2C3
:103E80000203984208D14FF00003C4F202035A68BB
:103E900042F470625A6070474FF04403C4F2020368
:103EA000984208D14FF00003C4F202035A6842F46A
:103EB00070425A6070474FF05803C4F202039842B0
:103EC00008D14FF00003C4F202035A6842F4702292
:103ED0005A6070474FF06C03C4F20203984208D155
:103EE0004FF00003C4F202035A6842F470025A60B1
:103EF00070474FF08003C4F20203984208D14FF09C
:103F00000003C4F202035A6842F070625A607047BC
:103F10004FF48163C4F20203984208D14FF48063E6
:103F2000C4F202035A6842F00F025A60704740F22E
:103F30001C43C4F20203984208D14FF48063C4F2D8
:103F400002035A6842F0F0025A6070474FF48663E9
:103F5000C4F20203984208D14FF48063C4F2020312
:103F60005A6842F470625A60704740F24443C4F2A7
:103F70000203984208D14FF48063C4F202035A68E6
:103F800042F470425A6070474FF48B63C4F20203EC
:103F9000984201BF4FF48063C4F202035A6842F4AE
:103FA000702208BF5A60704770B4066826F4FF4656
:103FB00026F070060D6A8C6845EA04020C692243FB
:103FC0004C6922438C692243CC6914434A6A2243D8
:103FD0008B6A134333430360CB6843600B68836091
:103FE0004B68C36070BC704721B1036843F00103A4
:103FF0000360704702684FF6FE731340036070471A
:104000001AB10368194301607047036823EA01018C
:104010000160704710B48379002B39D04FF480636E
:10402000C4F201031968026821EA02021A605968A1
:10403000026821EA02025A60027902F1804202F526
:10404000823214680168214311609968026821EA8C
:1040500002029A60D968026821EA0202DA604379B2
:10406000102B0CD14FF48063C4F2010399680268ED
:104070000A439A60D96802680A43DA6012E003F1E1
:10408000804303F58233196802680A431A6009E025
:10409000037903F1804303F582331A68016822EA49
:1040A00001021A6010BC70474FF40053C4F20203BF
:1040B00040F22312C4F267525A6048F6AB12CCF6B3
:1040C000EF525A60704700BF4FF40053C4F202032E
:1040D0001A6942F080021A61704700BF4FF4005322
:1040E000C4F20203DB6813F0010F13D14FF4005345
:1040F000C4F20203DB6813F0040F0ED14FF4005337
:10410000C4F20203D86800F0100000280CBF04209D
:10411000032070474FF0010070474FF002007047D6
:1041200010B50446FFF7DAFF012814BF002301236E
:10413000002C08BF002363B1FFF7D0FF013C0CBF88
:1041400000230123012814BF002303F00103002BE7
:10415000F2D1002C08BF052010BD00BF30B583B0E0
:1041600005460C464FF0000301934FF40050FFF753
:10417000D7FF04282DD14FF40053C4F202031A696B
:1041800042F001021A61A3B22B804FF40050FFF7F6
:10419000C7FF042814D105F102050195019B4FEAE0
:1041A00014441C804FF40050FFF7BAFF4FF4005343
:1041B000C4F20203196941F6FE720A401A6108E06E
:1041C0004FF40053C4F20203196941F6FE720A402B
:1041D0001A6103B030BD00BF38B505464FF430203A
:1041E000FFF79EFF042815D14FF40054C4F20204D7
:1041F000236943F0020323616561236943F04003AF
:1042000023614FF43020FFF78BFF226941F6FD73E5
:104210001340236138BD00BF2DE9F001CB7803F0D6
:104220000F0613F0100F1CBF8B781E430B7813B3CF
:1042300007684FF000034FF001054FF00F0C05FA2F
:1042400003F20C881440944210D14FEA83020CFA16
:1042500002F827EA080706FA02F21743CA78282A62
:1042600008BF446102D0482A08BF046103F101037A
:10427000082BE4D107600B88FF2B24D947684FF047
:1042800000034FF001054FF00F0C03F1080205FA8F
:1042900002F20C881440944210D14FEA83020CFAC7
:1042A00002F827EA080706FA02F21743CA78282A12
:1042B00008BF4461CA78482A08BF046103F10103BA
:1042C000082BE2D14760BDE8F001704783681942CE
:1042D0000CBF002001207047806880B2704700BF8B
:1042E000016170474161704741F4803383618161AE
:1042F000836183698369704730B400284FF00003FD
:10430000C4F20103B4BFDB695B6884B200F44012FD
:10431000B2F5401F0AD123F070634FF00002C4F2DF
:104320000102556825F07065556010E010F4801F9B
:104330001DBFC0F30342032505FA02F2420D04BF7C
:10434000120104FA02F223EA020343F0706331B16E
:104350004FEA50524FEA021204FA02F423430028B3
:104360004FF00002C4F20102B4BFD361536030BC0D
:10437000704700BF30B401F003024FEA82024FEAF7
:1043800091014FF00003C4F2010301F1020153F85F
:1043900021504FF00F0404FA02F425EA040443F814
:1043A000214053F8214000FA02F0044343F8214031
:1043B00030BC70474FF02003C4F20E2318607047E2
:1043C0004FF48053C4F202035A6822F4404210436F
:1043D000586070474FF48053C4F202031A6A1043C6
:1043E0001862704740F23C43C4F2422318607047A1
:1043F00010B44FF48053C4F202035B6803F00C0363
:10440000042B08D0082B0CD083BB4FF49053C0F280
:104410007A0303602FE04FF49053C0F27A030360F5
:1044200029E04FF48053C4F2020359685A68C1F37B
:10443000834303F1020312F4803F07BF4FF410627D
:10444000C0F23D024FF48052C4F202021FBFD16A93
:1044500001F00F0101314FF490521CBFC0F27A02FB
:10446000B2FBF1F203FB02F3036004E04FF490535C
:10447000C0F27A0303604FF48052C4F20202516822
:10448000C1F3031140F27813C2F200035C5C0168CF
:1044900021FA04F141605468C4F302241C5D21FA3E
:1044A00004F484605468C4F3C2241C5D21FA04F14E
:1044B000C1605268C2F381329B181B7CB1FBF3F1DF
:1044C000016110BC704700BF39B14FF48053C4F292
:1044D00002035A691043586170474FF48053C4F285
:1044E00002035A6922EA00005861704739B14FF45B
:1044F0008053C4F202039A691043986170474FF4E5
:104500008053C4F202039A6922EA0000986170475E
:1045100039B14FF48053C4F20203DA691043D86111
:1045200070474FF48053C4F20203DA6922EA0000B4
:10453000D861704739B14FF48053C4F20203DA688E
:104540001043D86070474FF48053C4F20203DA6816
:1045500022EA0000D860704741B14FF42053C4F202
:1045600000031A8892B21043188070474FF420530A
:10457000C4F200031A8892B222EA00001880704741
:104580004FF42053C4F200039A8892B242F0100212
:104590009A8070474FF42052C4F20002938823F0AF
:1045A00010034FEA03434FEA13439380704700BF61
:1045B0004FF42053C4F200039A8B92B2188B42EA54
:1045C0000040704710B50446FFF7DAFF4FEA144287
:1045D0004FF42053C4F200031A83A4B29C83FFF764
:1045E000D9FF10BD10B50446FFF7CAFFC4F303425C
:1045F0004FF42053C4F200031A81A4B29C81FFF748
:10460000C9FF10BD4FF42052C4F20002938803F09A
:1046100020039BB2002BF9D0704700BF4FF420520B
:10462000C4F20002938823F008034FEA03434FEAE1
:10463000134393804FF42052C4F20002938803F096
:1046400008039BB2002BF9D0704700BF038A828910
:1046500011420CBF0020012019420CBF002000F0C5
:104660000100704730B587B004460D46038A23F435
:1046700040534FEA03434FEA1343CA88134303826C
:1046800083890989AA880A4369890A4323F4B053B4
:1046900023F00C034FEA03434FEA134313439BB247
:1046A0008381838A23F440734FEA03434FEA134321
:1046B000AA891343838201A8FFF79AFE4FF460533F
:1046C000C4F201039C420CBF049A039AA3891BB253
:1046D000002B02EB820202EB8202BDBF2B685B0063
:1046E000B2FBF3F22968A4BF8900B2FBF1F248F2F1
:1046F0001F53C5F2EB13A3FB02134FEA53134FEA08
:1047000003154FF0640003FB1023A08900B20028BA
:104710000DDA4FEAC30303F1320348F21F51C5F229
:10472000EB11A1FB0321C1F3421129430CE04FEA35
:10473000031303F1320348F21F51C5F2EB11A1FB41
:104740000321C1F34311294389B2218107B030BD50
:1047500029B183899BB243F40053838170478389D5
:1047600023F400534FEA03434FEA13438381704716
:1047700022B1838A9BB2194381827047838A9BB29C
:1047800023EA0101818270474FEAC1514FEAD151BA
:1047900081807047038819420CBF002001207047B8
:1047A00081F0004102E000BF83F0004330B54FEAE2
:1047B00041044FEA430594EA050F08BF90EA020F4F
:1047C0001FBF54EA000C55EA020C7FEA645C7FEAE2
:1047D000655C00F0E2804FEA5454D4EB5555B8BF05
:1047E0006D420CDD2C4480EA020281EA030382EA76
:1047F000000083EA010180EA020281EA0303362D08
:1048000088BF30BD11F0004F4FEA01314FF4801CDA
:104810004CEA113102D0404261EB410113F0004FEC
:104820004FEA03334CEA133302D0524263EB4303A3
:1048300094EA050F00F0A780A4F10104D5F1200E41
:104840000DDB02FA0EFC22FA05F2801841F100019C
:1048500003FA0EF2801843FA05F359410EE0A5F170
:1048600020050EF1200E012A03FA0EFC28BF4CF0A1
:10487000020C43FA05F3C01851EBE37101F0004557
:1048800007D54FF0000EDCF1000C7EEB00006EEB64
:104890000101B1F5801F1BD3B1F5001F0CD34908EE
:1048A0005FEA30004FEA3C0C04F101044FEA445245
:1048B00012F5800F80F09A80BCF1004F08BF5FEACC
:1048C000500C50F1000041EB045141EA050130BDAC
:1048D0005FEA4C0C404141EB010111F4801FA4F14F
:1048E0000104E9D191F0000F04BF01460020B1FAA4
:1048F00081F308BF2033A3F10B03B3F120020CDADC
:104900000C3208DD02F1140CC2F10C0201FA0CF0B9
:1049100021FA02F10CE002F11402D8BFC2F1200C1E
:1049200001FA02F120FA0CFCDCBF41EA0C019040D4
:10493000E41AA2BF01EB0451294330BD6FEA04041D
:104940001F3C1CDA0C340EDC04F11404C4F1200208
:1049500020FA04F001FA02F340EA030021FA04F31A
:1049600045EA030130BDC4F10C04C4F1200220FA71
:1049700002F001FA04F340EA0300294630BD21FAAF
:1049800004F0294630BD94F0000F83F4801306BF75
:1049900081F480110134013D4EE77FEA645C18BF69
:1049A0007FEA655C29D094EA050F08BF90EA020F00
:1049B00005D054EA000C04BF1946104630BD91EAF8
:1049C000030F1EBF0021002030BD5FEA545C05D1FB
:1049D0004000494128BF41F0004130BD14F580043A
:1049E0003CBF01F5801130BD01F0004545F0FE41AE
:1049F00041F470014FF0000030BD7FEA645C1ABFE3
:104A0000194610467FEA655C1CBF0B46024650EA19
:104A1000013406BF52EA033591EA030F41F4002145
:104A200030BD00BF90F0000F04BF0021704730B5CB
:104A30004FF4806404F132044FF000054FF00001A0
:104A400050E700BF90F0000F04BF0021704730B561
:104A50004FF4806404F1320410F0004548BF404236
:104A60004FF000013EE700BF42004FEAE2014FEA8B
:104A700031014FEA02701FBF12F07F4393F07F4F66
:104A800081F06051704792F0000F14BF93F07F4F98
:104A9000704730B54FF4607401F0004521F00041DB
:104AA00020E700BF50EA010208BF704730B54FF061
:104AB00000050AE050EA010208BF704730B511F066
:104AC000004502D5404261EB41014FF4806404F19E
:104AD00032045FEA915C3FF4DCAE4FF003025FEA20
:104AE000DC0C18BF03325FEADC0C18BF033202EBA8
:104AF000DC02C2F1200300FA03FC20FA02F001FA02
:104B000003FE40EA0E0021FA02F11444C1E600BFA0
:104B100070B54FF0FF0C4CF4E06C1CEA11541DBF53
:104B20001CEA135594EA0C0F95EA0C0F00F0DEF81E
:104B30002C4481EA030621EA4C5123EA4C5350EA03
:104B4000013518BF52EA033541F4801143F4801354
:104B500038D0A0FB02CE4FF00005E1FB02E506F0E5
:104B60000042E0FB03E54FF00006E1FB03569CF03A
:104B7000000F18BF4EF0010EA4F1FF04B6F5007F40
:104B800064F5407404D25FEA4E0E6D4146EB0606B2
:104B900042EAC62141EA55514FEAC52040EA5E503B
:104BA0004FEACE2EB4F1FD0C88BFBCF5E06F1ED8E5
:104BB000BEF1004F08BF5FEA500E50F1000041EB1C
:104BC000045170BD06F0004646EA010140EA0200C9
:104BD00081EA0301B4EB5C04C2BFD4EB0C0541EAEB
:104BE000045170BD41F480114FF0000E013C00F300
:104BF000AB8014F1360FDEBF002001F0004170BD24
:104C0000C4F10004203C35DA0C341BDC04F114043C
:104C1000C4F1200500FA05F320FA04F001FA05F2C8
:104C200040EA020001F0004221F0004110EBD37095
:104C300021FA04F642EB06015EEA430E08BF20EAC1
:104C4000D37070BDC4F10C04C4F1200500FA04F364
:104C500020FA05F001FA04F240EA020001F00041F6
:104C600010EBD37041F100015EEA430E08BF20EA69
:104C7000D37070BDC4F1200500FA05F24EEA020EB1
:104C800020FA04F301FA05F243EA020321FA04F0E0
:104C900001F0004121FA04F220EA020000EBD37097
:104CA0005EEA430E08BF20EAD37070BD94F0000F97
:104CB0000FD101F00046400041EB010111F4801FCB
:104CC00008BF013CF7D041EA060195F0000F18BF7C
:104CD000704703F00046520043EB030313F4801FB8
:104CE00008BF013DF7D043EA0603704794EA0C0F72
:104CF0000CEA135518BF95EA0C0F0CD050EA410688
:104D000018BF52EA4306D1D181EA030101F0004104
:104D10004FF0000070BD50EA410606BF104619462C
:104D200052EA430619D094EA0C0F02D150EA013638
:104D300013D195EA0C0F05D152EA03361CBF104679
:104D400019460AD181EA030101F0004141F0FE4118
:104D500041F470014FF0000070BD41F0FE4141F49C
:104D6000780170BD70B54FF0FF0C4CF4E06C1CEA9C
:104D700011541DBF1CEA135594EA0C0F95EA0C0F51
:104D800000F0A7F8A4EB050481EA030E52EA03350C
:104D90004FEA013100F088804FEA03334FF080552D
:104DA00045EA131343EA12634FEA022245EA11155A
:104DB00045EA10654FEA00260EF000419D4208BF0B
:104DC000964244F1FD0404F5407402D25B084FEAB8
:104DD0003202B61A65EB03055B084FEA32024FF464
:104DE00080104FF4002CB6EB020E75EB030E22BFC1
:104DF000B61A754640EA0C005B084FEA3202B6EB81
:104E0000020E75EB030E22BFB61A754640EA5C002F
:104E10005B084FEA3202B6EB020E75EB030E22BFBF
:104E2000B61A754640EA9C005B084FEA3202B6EBC0
:104E3000020E75EB030E22BFB61A754640EADC007F
:104E400055EA060E18D04FEA051545EA16754FEAE1
:104E500006164FEAC30343EA52734FEAC2025FEAFF
:104E60001C1CC0D111F4801F0BD141EA00014FF08E
:104E700000004FF0004CB6E711F4801F04BF01435F
:104E80000020B4F1FD0C88BFBCF5E06F3FF6AFAE7B
:104E9000B5EB030C04BFB6EB020C5FEA500C50F10B
:104EA000000041EB045170BD0EF0004E4EEA11318E
:104EB00014EB5C04C2BFD4EB0C0541EA045170BD95
:104EC00041F480114FF0000E013C90E645EA060ED9
:104ED0008DE60CEA135594EA0C0F08BF95EA0C0F07
:104EE0003FF43BAF94EA0C0F0AD150EA01347FF44F
:104EF00034AF95EA0C0F7FF425AF104619462CE726
:104F000095EA0C0F06D152EA03353FF4FDAE104688
:104F1000194622E750EA410618BF52EA43067FF4D9
:104F2000C5AE50EA41047FF40DAF52EA43057FF469
:104F3000EBAE12E74A0011D212F5001211D20DD5D4
:104F40006FF47873B3EB62520ED44FEAC12343F08F
:104F5000004343EA505323FA02F070474FF0000039
:104F6000704750EA013002D14FF0FF3070474FF0E8
:104F7000000070474FEA4102B2F1E04324BFB3F5AD
:104F8000001CDCF1FE5C0DD901F0004C4FEAC002C0
:104F90004CEA5070B2F1004F40EB830008BF20F0A4
:104FA0000100704711F0804F21D113F13872BCBF5E
:104FB00001F00040704741F480114FEA5252C2F1B3
:104FC0001802C2F1200C10FA0CF320FA02F018BFFC
:104FD00040F001004FEAC1234FEAD32303FA0CFC4F
:104FE00040EA0C0023FA02F34FEA4303CCE77FEADE
:104FF000625307D150EA01331EBF4FF0FE4040F428
:105000004000704701F0004040F0FE4040F40000D6
:10501000704700BF80F0004002E000BF81F0004117
:1050200042001FBF5FEA410392EA030F7FEA226C4E
:105030007FEA236C6AD04FEA1262D2EB1363C1BFDE
:10504000D218414048404140B8BF5B42192B88BF4D
:10505000704710F0004F40F4000020F07F4018BF70
:10506000404211F0004F41F4000121F07F4118BF90
:10507000494292EA030F3FD0A2F1010241FA03FC38
:1050800010EB0C00C3F1200301FA03F100F0004320
:1050900002D5494260EB4000B0F5000F13D3B0F1E8
:1050A000807F06D340084FEA310102F10102FE2A57
:1050B00051D2B1F1004F40EBC25008BF20F00100C7
:1050C00040EA03007047490040EB000010F4000F75
:1050D000A2F10102EDD1B0FA80FCACF1080CB2EB08
:1050E0000C0200FA0CF0AABF00EBC2505242184367
:1050F000BCBFD0401843704792F0000F81F400010C
:1051000006BF80F400000132013BB5E74FEA4103DE
:105110007FEA226C18BF7FEA236C21D092EA030F4A
:1051200004D092F0000F08BF0846704790EA010FC4
:105130001CBF0020704712F07F4F04D1400028BFF1
:1051400040F00040704712F100723CBF00F50000D3
:10515000704700F0004343F0FE4040F40000704709
:105160007FEA226216BF08467FEA236301464202B5
:1051700006BF5FEA412390EA010F40F480007047C8
:105180004FF0000304E000BF10F0004348BF40426E
:105190005FEA000C08BF704743F0964301464FF0AA
:1051A00000001CE050EA010208BF70474FF0000306
:1051B0000AE000BF50EA010208BF704711F0004347
:1051C00002D5404261EB41015FEA010C02BF844617
:1051D0000146002043F0B64308BFA3F18053A3F576
:1051E0000003BCFA8CF2083AA3EBC25310DB01FABD
:1051F00002FC634400FA02FCC2F12002BCF1004F41
:1052000020FA02F243EB020008BF20F001007047D1
:1052100002F1200201FA02FCC2F1200250EA4C0025
:1052200021FA02F243EB020008BF20EADC7070476B
:105230004FF0FF0C1CEAD0521EBF1CEAD15392EA79
:105240000C0F93EA0C0F6FD01A4480EA010C400255
:1052500018BF5FEA41211ED04FF0006343EA5010AF
:1052600043EA5111A0FB01310CF00040B1F5000FF1
:105270003EBF490041EAD3715B0040EA010062F1A0
:105280007F02FD2A1DD8B3F1004F40EBC25008BF8A
:1052900020F00100704790F0000F0CF0004C08BFA8
:1052A00049024CEA502040EA51207F3AC2BFD2F175
:1052B000FF0340EAC250704740F400004FF0000383
:1052C000013A5DDC12F1190FDCBF00F000407047BD
:1052D000C2F10002410021FA02F1C2F1200200FAFB
:1052E00002FC5FEA310040F1000053EA4C0308BFC2
:1052F00020EADC70704792F0000F00F0004C02BF13
:10530000400010F4000F013AF9D040EA0C0093F08D
:10531000000F01F0004C02BF490011F4000F013BE7
:10532000F9D041EA0C018FE70CEAD15392EA0C0F55
:1053300018BF93EA0C0F0AD030F0004C18BF31F0C0
:10534000004CD8D180EA010000F00040704790F096
:10535000000F17BF90F0004F084691F0000F91F03A
:10536000004F14D092EA0C0F01D142020FD193EA00
:105370000C0F03D14B0218BF084608D180EA010088
:1053800000F0004040F0FE4040F40000704740F064
:10539000FE4040F4400070474FF0FF0C1CEAD05232
:1053A0001EBF1CEAD15392EA0C0F93EA0C0F69D08E
:1053B000A2EB030280EA010C49024FEA402037D0F9
:1053C0004FF0805343EA111143EA10130CF00040F0
:1053D0008B4238BF5B0042F17D024FF4000C8B42E0
:1053E00024BF5B1A40EA0C00B3EB510F24BFA3EBC0
:1053F000510340EA5C00B3EB910F24BFA3EB910390
:1054000040EA9C00B3EBD10F24BFA3EBD10340EAE9
:10541000DC001B0118BF5FEA1C1CE0D1FD2A3FF62F
:1054200050AF8B4240EBC25008BF20F001007047E4
:105430000CF0004C4CEA50207F32C2BFD2F1FF0387
:1054400040EAC250704740F400004FF00003013AB8
:1054500037E792F0000F00F0004C02BF400010F45C
:10546000000F013AF9D040EA0C0093F0000F01F070
:10547000004C02BF490011F4000F013BF9D041EA92
:105480000C0195E70CEAD15392EA0C0F08D14202C5
:105490007FF47DAF93EA0C0F7FF470AF084676E798
:1054A00093EA0C0F04D14B023FF44CAF08466EE771
:1054B00030F0004C18BF31F0004CCAD130F000423F
:1054C0007FF45CAF31F000437FF43CAF5FE700BF97
:1054D0004FF0FF3C06E000BF4FF0010C02E000BFC0
:1054E0004FF0010C4DF804CD4FEA40024FEA410362
:1054F0007FEA226C18BF7FEA236C11D001B052EA18
:10550000530C18BF90EA010F58BFB2EB030088BFDD
:10551000C81738BF6FEAE17018BF40F0010070474C
:105520007FEA226C02D15FEA402C05D17FEA236C2E
:10553000E4D15FEA412CE1D05DF8040B704700BF75
:10554000844608466146FFE70FB5FFF7C9FF00280C
:1055500048BF10F1000F0FBD4DF808EDFFF7F4FF45
:105560000CBF012000205DF808FB00BF4DF808EDDE
:10557000FFF7EAFF34BF012000205DF808FB00BF01
:105580004DF808EDFFF7E0FF94BF012000205DF823
:1055900008FB00BF4DF808EDFFF7D2FF94BF0120D4
:1055A00000205DF808FB00BF4DF808EDFFF7C8FFCD
:1055B00034BF012000205DF808FB00BF4FEA400225
:1055C000B2F1FE4F0FD34FF09E03B3EB12620DD931
:1055D0004FEA002343F0004310F0004F23FA02F09B
:1055E00018BF404270474FF00000704712F1610F42
:1055F00001D1420205D110F0004008BF6FF0004019
:1056000070474FF000007047032A70B422D941EA76
:1056100000039B0713D005780C78013A0023A542BC
:1056200006D01BE010F8015F11F8014FA54215D11B
:10563000934203F10103F5D1002070BC7047066866
:105640000D680C46034604310430AE4208D1043ADA
:10565000032AF4D8002ADED11046EEE7281BECE737
:1056600021461846002AD6D1F6E700BF20F00301F4
:1056700010F00300C0F1000051F8043B00F1040CED
:105680004FEACC0C6FF000021CBF22FA0CF213435D
:105690004FF0010C4CEA0C2C4CEA0C4CA3EB0C0226
:1056A00022EA030212EACC1204BF51F8043B043090
:1056B000F4D013F0FF0F1FBF013013F47F4F013000
:1056C00013F47F0F18BF0130704700BF0D0A20533D
:1056D000574954434820544F20424F4F544C4F4158
:1056E0004445522E2E2E00000D0A0D0A202D2D2D80
:1056F0002D2D2D2D2D2D2D2D2D2D2D2D2D2D2D2DDA
:105700002D2D20454E4420414C4C2050524F4752A5
:10571000414D53202D2D2D2D2D2D2D2D2D2D2D2D6C
:105720002D2D2D2D2D2D2D2D2D2000000D0A0D0A96
:10573000202D2D2D2D2D2D2D20737769746368203C
:10574000746F20736D5F6E6578742070726F67720E
:10575000616D202D2D2D2D2D2D2D20000D0A207059
:1057600072673A2072657065617420737461727437
:10577000207072675F737465700000000D0A2070FE
:1057800072673A2072657065617420636F756E741C
:10579000657200000D0A20736D3A2070726F677297
:1057A000616D20696E646578200000000D0A20702C
:1057B00072673A2070726F6772616D204552524F66
:1057C00052206C6F61642066726F6D20696E646533
:1057D000782C20696E64657820746F206269672177
:1057E000200000000D0A207072673A2070726F6707
:1057F00072616D2073756363657373206C6F616490
:105800002066726F6D20696E64657820000000006C
:105810000D0A207072673A20757365722074656D89
:10582000702076616C756520430000000D0A0D0A3A
:10583000202D2D2D2D2D2D2D20736D5F656E642057
:1058400070726F6772616D202D2D2D2D2D2D2D20E5
:10585000000000000D0A0D0A202D2D2D2D2D2D2DBF
:1058600020736D5F73746172742070726F67726100
:105870006D202D2D2D2D2D2D2D2000000D0A0D0A12
:10588000000000002D2D2D2D2D2D2D2D2D2D2D2DFC
:105890002D2D2D2D2D2D2D2D2D2D2D2D2D2D2D2D38
:1058A0002D2D2D2D2D2D2D2D2D2D2D2D2D2D2D2D28
:1058B0002D2D2D2D2D2D0D0A000000004C6F616443
:1058C00065642070726F6772616D0D0A00000000E0
:1058D00054494D4500000000534D3A00484541549D
:1058E00045523A0050554D50533A00004D4F544FD9
:1058F000523A0000504F52545320494E3A00000093
:10590000504F525453204F55543A0000202020202D
:1059100030303A30303A3030000000000D0A0D0AC5
:10592000206865617465723A2053746174652069FA
:1059300073204F4E000000000D0A0D0A20686561BB
:105940007465723A205374617465206973204F4600
:10595000460000000D0A206865617465723A2052A5
:1059600065616C79204F55542050494E2C203020D1
:105970002D204F46460000000D0A206865617465C1
:10598000723A20474554207374617465000000002A
:105990000D0A206865617465723A20496E74656EFF
:1059A000742056616C0000000D0A20686561746502
:1059B000723A2054656D7053656E736F7220566134
:1059C0006C0000007374702B000000000D0A0D0ABB
:1059D00020484F535420434D442053574954434883
:1059E00020544F204E45585420535445502E2E2EAF
:1059F000200D0A0D0A0000007374702D00000000D5
:105A000072737473000000000D0A0D0A20484F5392
:105A10005420434D442052455345542E2E2E0D0AFA
:105A20000D0A0000626F6F740000000000000100AA
:105A3000020003000400000000000100020000005A
:105A40000100030004000500060007000800000034
:105A50000D0A0D0A2070756D707320696E3A2073FF
:105A60007461746520616C6C204F46460000000034
:105A70000D0A0D0A2070756D707320696E3A2073DF
:105A8000746174652041204F4E0000000D0A0D0A1C
:105A90002070756D707320696E3A2073746174653F
:105AA0002042204F4E0000000D0A0D0A2070756D37
:105AB000707320696E3A20737461746520616C6C38
:105AC000204F4E000D0A0D0A2070756D707320690D
:105AD0006E3A207374617465000000000D0A207036
:105AE000756D707320696E3A2077617465722068F5
:105AF0006561746572206C6576656C20636F6E7489
:105B0000726F6C0070756D7073204745542073740C
:105B10006174650D0A0000000D0A202070756D701B
:105B200073204F4E2C20776174657220636F6E7402
:105B3000726F6C204F4E00000D0A2070756D7073EF
:105B40003A207761746572206C6576656C204E4FE3
:105B5000207369676E616C2C2072657065617420BA
:105B60006379636C65206F6E63652C207265747554
:105B7000726E20000D0A2070756D70733A206E6F82
:105B80007720776174657220636F6E74726F6C201A
:105B90006973204F4B2C2072657475726E00000083
:105BA0000D0A2070756D70733A2070756D707320DA
:105BB0004F46462C20776174657220636F6E747255
:105BC0006F6C204F4E0000000D0A2070756D7073D1
:105BD0003A204E4F207369676E616C2C20726563AA
:105BE0006F6E66696720737461746520666F7220DA
:105BF00070756D7073204F4E000000000D0A20700C
:105C0000756D70733A20776174657220636F6E747E
:105C1000726F6C204F464600040705151716141CBA
:105C20001E1F1D0D0F0E0C0E0F0D1D1F1E1C14161A
:085C300017150507060000002E
:105C38000D0A200000000000000000000000000025
:105C4800010000000D0A2000000000000000000014
:105C580000000000A80000202C0000200000000028
:105C68000000000044000020440000202C5A0008D6
:105C78000600000000000000000000000000000016
:105C88000A000000000000000000000301000000FE
:105C98000000000064000000000000000132000065
:105CA800000001010A000000600900000000000077
:105CB8000000000000010000000000003C0000009F
:105CC8001E010000000000000001000000000000AC
:105CD8002800000000000000000000000000000094
:105CE800C0000020C0000020385A00080C00000046
:105CF8000000000000000000000000000A00000092
:105D08000000000000000003010000000000000087
:105D18000F0000000000000000000000010001006A
:105D28003C000000580200000000000001280000AC
:105D3800010001003C0000003C00000000000000E1
:105D48000128000000000101320000003C000000B2
:105D58001405000000000000000100000000000021
:105D68001E00000000000000000000030100000009
:105D780000000000280000000000000001280000CA
:105D8800000001006400000078000000000000002E
:105D98000000000000010101C80000001E00000012
:105DA80003080000010000000000000001020304D5
:0C5DB800010203040607080902040608A3
:0400000508002000CF
:00000001FF
