:020000040800F2
:10200000D00600202D280008C93A0008CD3A000863
:10201000D13A0008D53A0008D93A0008000000007B
:10202000000000000000000000000000DD3A000891
:10203000E13A000800000000E53A0008E93A00082B
:10204000292800082928000829280008ED3A000856
:10205000292800082928000829280008292800081C
:10206000292800082928000829280008413D0008DF
:10207000292800082928000829280008B53D00085B
:102080002928000829280008292800080000000045
:10209000000000000000000000000000D13B00082C
:1020A00029280008553B000829280008292800088D
:1020B0002928000829280008913B00082928000841
:1020C00029280008292800082928000829280008AC
:1020D000292800082928000829280008292800089C
:1020E00029280008292800082928000800000000E5
:1020F00000000000000000000000000000000000E0
:1021000000000000000000000000000000000000CF
:10211000000000000000000029280008292800080D
:102120005FF808F129B1064B1A8892B21043188063
:102130007047034B1A8892B222EA00001880704759
:1021400000280040034B9A8892B242F010029A8015
:10215000704700BF00280040034A938823F0100313
:102160001B041B0C9380704700280040034B9A8B84
:1021700092B2188B42EA0040704700BF002800402E
:1021800010B50446FFF7DEFF220C034B1A83A4B2FE
:102190009C83FFF7E1FF10BD0028004010B5044606
:1021A000FFF7D0FFC4F30342034B1A81A4B29C8112
:1021B000FFF7D2FF10BD00BF00280040034A9388FC
:1021C00003F020039BB2002BF9D070470028004099
:1021D000064A938823F008031B041B0C9380938802
:1021E00003F008039BB2002BF9D070470028004091
:1021F000038A828992B2194204D011420CBF002096
:1022000001207047002070472DE9F04F87B072B66B
:102210003D20012100F02AFF9848012100F088FCB0
:102220004FF48466ADF808604FF010088DF80B800D
:1022300001258DF80A50924C204602A900F010FCAE
:102240002046314600F06CFC2046202100F066FC60
:10225000F024ADF8084028238DF80B308DF80A5093
:10226000884F384602A900F0FBFB3846214600F0B3
:1022700057FC00F07FFB00F023FF00F081F901F034
:1022800061FF01F013FA804E08233360E02386F8E3
:1022900003334FF0C050294600F0F6FE284600F008
:1022A00063FB4FF4407000F06BFE284600F070FEB8
:1022B000FFF784FFFFF78CFFFFF780FF28462946D2
:1022C000FFF730FFFFF77AFF4FF22340FFF766FF7B
:1022D000FFF774FF0020FFF753FFFFF76FFF4FF486
:1022E0008040294600F0C2FE684C204601F028FEDE
:1022F000236823F001032360654BA360DFF8A491FA
:10230000C4F80C90236823F0100323600423636057
:10231000226822F040022260226842F0800222609D
:10232000226822F440722260226822F44062226015
:10233000226842F020022260226842F48052226029
:102340004FF48062ADF804208DF8073038460DEB6D
:10235000030100F085FB4FF40073ADF80430032354
:102360008DF8063018238DF80730384601A900F0A3
:1023700077FB4FF4E13302930023ADF80C30ADF856
:102380000E30ADF81030ADF814300C23ADF812302B
:1023900007F54057384602A901F002F938464021B6
:1023A0002A4601F06DF93846294601F05BF92046CE
:1023B000294601F075FE204602212A4601F07EFEE4
:1023C0004FF400433360D02386F80F3304F6A8742B
:1023D000A36943F40063A3612E4BEF221A8541F2F7
:1023E00088329A859A8992B22A439A811A8892B23F
:1023F00042F081021A804FF000723260A02286F80B
:102400001923B3F828A01FFA8AFAB3F82CB01FFAE0
:102410008BFB214B186802F01BFD0746504602F06B
:1024200017FD8246584602F013FD0146504602F061
:1024300067FD0146384602F017FEC9F80800E36957
:1024400043F00403E361154B17221A8540F2E7328B
:102450009A8580221A809D814FF08043336086F8F0
:102460001E830F4801F0CEFC4FF4FA6001F03AFEF3
:1024700001F074FF62B607B0BDE8F08F00043000D1
:10248000001001400008014000E100E05800024057
:1024900004380140002C01400000002000080040EA
:1024A00050560008A801002070B50546194902F0F1
:1024B000D9FE00B1174D184C238823F001031B04EB
:1024C0001B0C23801548294602F0CEFD02F004FFC4
:1024D00080B2A08523889BB243F001032380258D21
:1024E000ADB2A68DB6B20E4B186802F0B1FC044630
:1024F000284602F0ADFC0546304602F0A9FC014634
:10250000284602F0FDFC0146204602F0ADFD054BD9
:10251000986070BD00002041002C014000409C45A7
:1025200000000020A8010020014B9868704700BF00
:10253000A801002008B50D4801F064FC01F02EFA56
:102540000B4C204601F06AFA20460A4901F086FA4F
:1025500001F030FABFF34F8F074AD16801F4E06110
:10256000064B0B43D360BFF34F8FFEE7E0530008E9
:1025700000FE01085ADFFDA500ED00E00400FA05A9
:102580002DE9F04383B04FF48046ADF80460102489
:102590008DF807404FF001098DF806901B4F384623
:1025A00001A900F05DFA3846314600F0B7FA40F272
:1025B0000445ADF804508DF8074003238DF806302C
:1025C000134C204601A900F04BFA2046294600F0A2
:1025D000A3FA4FF48078ADF8048028238DF80730F3
:1025E0008DF80690204601A900F03AFA38463146A7
:1025F00000F096FA2046294600F092FA204641461D
:1026000000F08EFA03B0BDE8F08300BF000801407F
:10261000000C014082B0C2B2044B1A70C0F3072212
:102620005A70C0F30740987002B07047B4010020A0
:1026300030B587B00190C2B2C0F307443A4B029361
:10264000002303930493ADF814308DF81630374B04
:102650001B78DBB2934206D1344B9B78DBB2A342AA
:1026600001D100295DD0032A30D8DFE802F0020B47
:1026700019272F4840F2044100F04EFA2D4801F08E
:10268000C1FB23E02A4D2846042100F047FA2846E2
:102690004FF4806100F040FA274801F0B3FB15E0E9
:1026A000234D2846042100F037FA28464FF4806174
:1026B00000F034FA214801F0A5FB07E01C4840F285
:1026C000044100F02BFA1E4801F09CFB14B1012CD0
:1026D00006D00AE01B484FF4804100F01FFA04E0E6
:1026E00018484FF4804100F017FA0198FFF792FF65
:1026F0000E4C20780DF10A01042201F08DFB1248E6
:1027000001F080FB02A801F07DFB104801F07AFB8C
:1027100060780DF10A01042201F07EFB02A801F0AD
:1027200071FB07B030BD00BF0D0A2000B4010020CE
:10273000000C0140FC5300081C54000838540008E9
:1027400054540008000801407054000888540008E0
:1027500082B00023ADF8063003F1804303F58833DF
:102760009B6803F480739BB2ADF80630BDF8060099
:1027700080B202B0704700BF10B582B000238DF860
:1027800004308DF805308DF80630204B1B7813F09F
:10279000FF0F1ED01D4B5B78DBB2012B19D11C48FB
:1027A00001F030FBFFF7D4FF78B91A4801F02AFB9B
:1027B00001F056FE846801F057FE0378013B9BB29E
:1027C0001B0243F0010323821EE0134801F01AFBB1
:1027D00016E00E4B1B7813F0FF0F0ED10B4B5B78FE
:1027E000DBB2012B09D10D4801F00CFBFFF7B0FF64
:1027F00030B90B4801F006FB02E00A4801F002FB89
:1028000001980121FFF714FF02B010BDB4010020B0
:10281000C4540008E454000814550008405500084A
:10282000685500089C550008FEE700BF10B5104B26
:10283000104A9A420DD2131D0F4CE41A24F00304DF
:102840000434002310460D495A581A500433A34249
:10285000FAD10B480B494FF000028842B8BF40F84C
:10286000042BFFF6FAAF00F00FF800F0B1F910BD3D
:10287000A801002000000020AB0100207C590008C6
:10288000A8010020CC02002082B0334B1A6842F02D
:1028900001021A605968314A0A405A601A6822F0E7
:1028A000847222F480321A601A6822F480221A603C
:1028B0005A6822F4FE025A604FF41F029A60002206
:1028C000DA62009201921A6842F480321A601A4663
:1028D000136803F400330193009B01330093019BC1
:1028E0001BB9009BB3F5A06FF2D11B4B1B6813F40F
:1028F000003F14BF012300230193019B012B26D12C
:10290000154B5A685A605A685A605A685A605A6831
:1029100022F47C125A605A6842F498125A601A687B
:1029200042F080721A601A46136813F0007FFBD0E1
:10293000094B5A6822F003025A605A6842F00202B8
:102940005A601A46536803F00C03082BFAD1044A64
:10295000044B9A6002B07047001002400000FFF87C
:102960000020000800ED00E0014B1860704700BF38
:1029700020000E4270B582B04FF40065ADF80450EF
:1029800010238DF8073001268DF80660154C20467F
:1029900001A900F065F82046294600F0C1F825613C
:1029A0004FF47045ADF8045028238DF807308DF8AA
:1029B0000660204601A900F053F82046294600F0A1
:1029C000AFF80224ADF8044005F1804505F5005547
:1029D000284601A900F044F82846214600F0A0F856
:1029E00002B070BD000C014010B582B0194800F073
:1029F0008FF804461848022100F084F8240B44EABA
:102A00000010C4B28DF80740144B9B6813F0100FF0
:102A10001CD19DF807109DF807409DF807209DF8F0
:102A200007309DF8070004F00104C1F3C00141EA3A
:102A30004401C2F3400241EA8202C3F3001342EAB6
:102A4000C303C0F3800043EA001000E0072002B097
:102A500010BD00BF000C0140001001400008014003
:102A60002DE9F001CB7803F00F0513F0100F1CBF18
:102A70008B781D430B78F3B10768002301264FF0D4
:102A80000F0C06FA03F20C88144094420FD19A00FE
:102A90000CFA02F827EA080705FA02F21743CA7887
:102AA000282A01D1446102E0482A08BF04610133A9
:102AB000082BE6D107600B88FF2B20D9476800233D
:102AC00001264FF00F0C03F1080206FA02F20C88FF
:102AD000144094420FD19A000CFA02F827EA080732
:102AE00005FA02F21743CA78282A08BF4461CA7857
:102AF000482A08BF04610133082BE4D14760BDE8D0
:102B0000F0017047836819420CBF00200120704714
:102B1000806880B2704700BF0161704741617047B3
:102B200041F4803383618161836183698369704784
:102B300030B40028194BB4BFDB695B6884B200F481
:102B40004012B2F5401F07D123F07063134A556855
:102B500025F07065556014E010F4801F09D0C0F3B3
:102B60000342032505FA02F223EA020343F07063ED
:102B700007E0420D120104FA02F223EA020343F0D5
:102B8000706319B1420D1201944023430028034A97
:102B9000B4BFD361536030BC704700BF0000014038
:102BA00010B401F003039B0001F0FC0101F180412E
:102BB00001F580318C680F229A4024EA02028A6073
:102BC0008A68984002438A605DF8044B704700BFF2
:102BD0002DE9F84FFFF758FEFFF716FBAA484FF410
:102BE0008061FFF799FFA94CDFF8E0824FF0000AFF
:102BF000DFF8DC92A64F0026A64DFFF7DFFAFFF7BD
:102C0000B5FA8346FFF7DAFA237813F0FF0F04D002
:102C1000584601F017FC286009E02B689B4506D94F
:102C200001F002FC01F034FB0123237020E001F0ED
:102C300017FC21788368DA78187942EA00225879FB
:102C400042EA0040FFF7F4FC01F00AFC21788368B7
:102C5000186800F0C5FD01F003FC21788368D3F803
:102C6000060000F01BFB237813F0FF0F18BF26703F
:102C70002B79DBB2012BC0D10022864B1A7186481A
:102C80008649042202F048FB60B9FFF797FAFFF784
:102C90006DFA01387F4B1860FFF790FA804801F019
:102CA000B1F83EE17C487F49042202F035FB002860
:102CB00000F0378178487C49032202F02DFB70B97F
:102CC0007A4801F09FF8BFF34F8F794AD16801F439
:102CD000E061784B0B43D360BFF34F8FFEE76E4B41
:102CE0001B786D2B40F08480734801F08BF86A4BA1
:102CF0005B78742B15D1684DA8783038C0B202F0DB
:102D0000A7F80646E8783038C0B202F0A1F8494684
:102D100002F0AAF90146304601F0EAFFFFF7C4FBD2
:102D2000FFE0702B15D15C4DA8783038C0B202F0AE
:102D30008FF80646E8783038C0B202F089F8494684
:102D400002F092F90146304601F0D2FF5B4B186069
:102D5000E7E0642B15D1504DA8783038C0B202F0AE
:102D600077F80646E8783038C0B202F071F8494684
:102D700002F07AF90146304601F0BAFF504B186074
:102D8000CFE0303BD9B2444B9A78303AD2B202EB22
:102D900082025200642000FB0120DB78303BDBB272
:102DA000184402F059F80546414602F05BFA28B98A
:102DB0002846514602F042FA18B101E0454600E0CB
:102DC000554601F04DFB836801269E7101F048FBDA
:102DD000D0F808B0284602F07FFAABF8080001F0FE
:102DE0003FFB8368D3F80600314600F057FA98E0BD
:102DF00029483449032202F08FFAF8B9264BDB78D0
:102E00002B2B05D101F02CFB83680322DA7007E03D
:102E10002D2B40F0868001F023FB83680022DA70BE
:102E200001F01EFB8368DA78197942EA01225879A9
:102E300042EA00400121FFF7FBFB72E016482249FD
:102E4000032202F069FA002844D1134BDB782B2BC4
:102E500005D101F005FB836801225A7106E02D2B94
:102E60005FD101F0FDFA836800225A7101F0F8FA8F
:102E70008368DA78197942EA0122587942EA0040F7
:102E80000121FFF7D5FB4CE00010014014000020A9
:102E900058000240B8010020A8010020D8550008C1
:102EA000E05500080C560008145600081C5600088F
:102EB00000ED00E00400FA05385600088C010020FF
:102EC00090010020545600085856000800C079446C
:102ED0000000204122482349032202F01DFAC0B914
:102EE0001F4BDB782B2B05D101F0BAFA8368012246
:102EF0001A7006E02D2B14D101F0B2FA836800227B
:102F00001A7001F0ADFA83681868012100F068FCBE
:102F100007E013481449042202F0FEF908B9FFF74C
:102F200009FB3B6823F001033B600D4900220B467F
:102F300003F8012B4A70013303F8012B03F8012B2E
:102F400003F8012B03F8012B03F8012B1A7004235B
:102F50007B60F9603B6843F001033B604BE600BFD8
:102F6000A80100205C56000860560008034B5A6810
:102F700022F4404210435860704700BF00100240E6
:102F8000024B1A6A10431862704700BF00100240DB
:102F9000014B1860704700BF3C04424210B4284BFC
:102FA0005B6803F00C03042B05D0082B06D0FBB99B
:102FB000244B03601EE0234B03601BE0204B596849
:102FC0005A68C1F38343023312F4803F04D11E4A8E
:102FD00002FB03F303600DE0194AD26A02F00F020C
:102FE00001321849B1FBF2F203FB02F3036001E086
:102FF000144B0360124A5168C1F30311134B595C1F
:10300000C9B2046824FA01F141605468C4F302248F
:103010001C5DE4B221FA04F484605468C4F3C22451
:103020001C5DE4B2E140C1605268C2F381321344D6
:103030001B7CDBB2B1FBF3F101615DF8044B70471F
:103040000010024000127A0000093D0078010020C3
:1030500021B1054B5A69104358617047024B5A69B8
:1030600022EA0000586170470010024021B1054B70
:103070009A69104398617047024B9A6922EA0000EE
:10308000986170470010024021B1054BDA69104386
:10309000D8617047024BDA6922EA0000D8617047B4
:1030A0000010024021B1054BDA681043D860704728
:1030B000024BDA6822EA0000D86070470010024034
:1030C0002DE9F04385B0354C20464FF40061FFF701
:1030D00025FD20464FF41041FFF720FD4FF4184620
:1030E000ADF80C604FF010098DF80F9001258DF8A8
:1030F0000E50204603A9FFF7B3FC20463146FFF7E8
:103100000FFD4FF40077ADF80C7048238DF80F30A9
:10311000234E304603A9FFF7A3FC4FF48078ADF8A7
:103120000C8028238DF80F30304603A9FFF798FC58
:1031300028460821FFF734FD28460921FFF730FD16
:10314000019700278DF808708DF809908DF80A50C6
:1031500001A800F0F9F8CDF804808DF80870082374
:103160008DF809308DF80A5001A800F0EDF83046CE
:103170004FF44071FFF7D4FC20464FF40061FFF795
:10318000CDFC20464FF41041FFF7C8FC2022054B30
:1031900083F8172305B0BDE8F08300BF00080140A5
:1031A000000C014000E100E000487047C001002031
:1031B000F0B583B00546002301930093144E3768A1
:1031C000144C608880B201F043FE294601F08EFD68
:1031D000394601F049FF019076686068294601F0A0
:1031E00085FD314601F040FF65600090019800992F
:1031F000A56801F07DFD02F049F82844A060A368AD
:10320000B3F5487F02DB4FF44872A26003B0F0BD13
:103210008C010020C0010020034B9B6813B1024BBE
:103220009868704701207047C0010020034B5A88FE
:1032300092B29A6000225A60704700BFC00100201D
:1032400038B5FFF7F3FF124C20464FF40061FFF74B
:1032500065FC00220F4B1A70642000F043FF2046EB
:103260004FF41041FFF75AFC0B4C642523889BB2A6
:10327000002BFBD1284600F035FF23889BB2002BA2
:10328000F4D1044B00221A705A705A8038BD00BF26
:1032900000080140C00100209C020020F0B583B06E
:1032A0000190C4B2C0F30725234B1B78DBB2A342C5
:1032B00006D1214B5B78DBB2AB4201D1002939D07A
:1032C000002C35D0BDF806601B4B1B7813F0FF0FA8
:1032D00006D0194B5B78DBB2AB4201D0FFF7B0FFF1
:1032E0005DB9164F38464FF40041FFF715FC3846DC
:1032F0004FF48051FFF712FC0AE0104F38464FF4AC
:103300000041FFF70BFC38464FF48051FFF704FCF7
:10331000C82000F0E7FE084B1C705D705E804FF423
:103320000072074B5A614FF40002064B1A6001E02D
:10333000FFF786FF03B0F0BDC00100200008014088
:103340000004014000E100E010B48379002B33D089
:10335000204B1968026821EA02021A605968026863
:1033600021EA02025A60027902F1804202F58232B9
:1033700014680168214311609968026821EA020219
:103380009A60D968026821EA0202DA604379102B58
:1033900009D1104B996802680A439A60D96802689B
:1033A0000A43DA6012E003F1804303F582331968BF
:1033B00002680A431A6009E0037903F1804303F5C8
:1033C00082331A68016822EA01021A605DF8044B30
:1033D000704700BF0004014008B5154B98420AD160
:1033E0004FF400700121FFF75DFE4FF400700021E3
:1033F000FFF758FE08BD0F4B98420AD14FF480608A
:103400000121FFF74FFE4FF480600021FFF74AFED5
:1034100008BD094B984209D14FF400400121FFF744
:1034200041FE4FF400400021FFF73CFE08BD00BF05
:103430000024014000280140003C014010B44368D2
:1034400023F4702323F480730A6813430A7943EA50
:103450000223436084688A68CB681A43094B23407F
:1034600013434A7943EA42038360C26A22F470023A
:103470000B7C013BDBB242EA0353C3625DF8044BB1
:10348000704700BFFDF7F1FF21B1836843F00103EE
:1034900083607047836823F001038360704700BF37
:1034A00021B1836843F4807383607047836823F499
:1034B00080738360704700BF836843F008038360B4
:1034C000704700BF8068C0F3C0007047836843F056
:1034D00004038360704700BF8068C0F380007047BA
:1034E00021B1836843F4A00383607047836823F4A9
:1034F000A0038360704700BF70B409290ED9C66865
:10350000A1F10A0404EB44040725A54026EA0505B9
:1035100003FA04F445EA0403C3600BE0066901EB17
:1035200041040725A54026EA050503FA04F445EA07
:1035300004030361062A0CD8446B013A02EB8202B1
:103540001F23934024EA030301FA02F21A43426361
:103550001AE00C2A0CD8046B073A02EB82021F23F4
:10356000934024EA030301FA02F21A4302630BE0D8
:10357000C46A0D3A02EB82021F23934024EA03033C
:1035800001FA02F21A43C26270BC7047C06C80B28A
:10359000704700BF036819420CBF0020012070472C
:1035A00030B587B004460D46038A9BB223F44053DE
:1035B000CA8813430382828992B20989AB880B437C
:1035C00069890B4322F4B05222F00C0213439BB2E0
:1035D0008381838A9BB223F44073AA891343838235
:1035E00001A8FFF7DBFC1D4B9C420CBF049A039A19
:1035F000A3891BB2002B08DA02EB820202EB8202E3
:103600002B685B00B2FBF3F207E002EB820202EBF5
:10361000820229688900B2FBF1F2114BA3FB02136D
:103620005B091801642103FB1123A18909B2002958
:1036300008DADB0032330A4DA5FB0323C3F3421340
:10364000034307E01B013233054DA5FB0313C3F30E
:10365000431303439BB2238107B030BD00380140C0
:103660001F85EB5129B183899BB243F400538381B9
:103670007047838923F400531B041B0C838170471C
:1036800022B1838A9BB2194381827047838A9BB29D
:1036900023EA010181827047C1F3080181807047EC
:1036A000038819420CBF002001207047F0B593B089
:1036B0004FF48077ADF8447010238DF84730012423
:1036C0008DF84640414E304611A9FFF7C9F9304602
:1036D0003946FFF723FA4FF44040FFF747FC2046F6
:1036E0002146FFF7B5FC4FF400702146FFF7BEFC02
:1036F0000423ADF8443000258DF84750304611A919
:10370000FFF7AEF906F578460836304600F018FCAB
:103710002F4B01932F4B029303956423049305953C
:103720008023069307974FF480630893202309931F
:103730000A950B95304601A900F092FC30462146CF
:1037400000F0AEFC30460221224600F0B7FCF02229
:10375000214B83F80B230C958DF834508DF83540B0
:103760004FF460230E930F958DF840401B4D284673
:103770000CA9FFF763FE2846022122460723FFF724
:10378000BBFE28462146FFF78BFE28462146FFF761
:103790007BFE2846FFF790FE2C462046FFF792FE60
:1037A0000028FAD10D48FFF791FE0C4C2046FFF798
:1037B00093FE0028FAD109480121FFF791FE034842
:1037C0004FF48071FFF7ACF913B0F0BD0008014071
:1037D0004C240140CC01002000E100E00024014025
:1037E00070B586B001900D46C4B2C0F3072640F60E
:1037F0000D230293002303930493ADF814308DF846
:103800001630364B93F8C830DBB2A34222D109BB45
:10381000324B93F8C83013F0FF0F57D02F4B93F86B
:10382000CA20D2B293F8C930013B9A4204DA4FF46D
:1038300080722B4B1A6149E0284B93F8CA20D2B210
:1038400093F8C93001339A4240DD4FF48072244B23
:103850005A613BE074B100F003FE8378B3B100F02D
:10386000FFFD86784FF400621E4B1A601E4800F080
:10387000C9FA0BE01D4800F0C5FA4FF48072184BEE
:103880005A614FF40062174BC3F88020134B83F842
:10389000C84083F8C960B3F8CC30B3F5FA7F01D0E3
:1038A000012D19D100220D4BA3F8CC200C4BD86868
:1038B00000F480700DF10A01042200F0ADFA0C480A
:1038C00000F0A0FA02A800F09DFA05E0034BB3F85F
:1038D000CC30B3F5FA7FE5D006B070BDCC01002046
:1038E0000008014000E100E08C560008A8560008DE
:1038F000C456000810B584B0044640F60D23019369
:1039000000230293ADF80C30204BB3F8CE300133D6
:103910009BB2B3F5FA7F03D21C4AA2F8CE3025E061
:103920001A4B0022A3F8CE2093F8C9000DF106012E
:10393000032200F071FA164800F064FA01A800F0C2
:1039400061FA204600F0F8FE0022124B01F072F8F6
:1039500001F058F9C0B20DF10601042200F05CFA42
:103960000D4800F04FFA01A800F04CFA204600F094
:10397000E3FE0022074B01F05DF801F043F9C0B20D
:10398000024B83F8CA0004B010BD00BFCC01002078
:10399000005700080000544018570008034B044A21
:1039A0005A6002F188325A60704700BF002002401E
:1039B00023016745024B1A6942F080021A61704781
:1039C000002002400B4BDB6813F0010F0DD1094BB7
:1039D000DB6813F0040F0AD1064BDB6803F0100319
:1039E000002B0CBF042003207047012070470220E9
:1039F000704700BF0020024010B50446FFF7E2FF09
:103A0000012808D144B1FFF7DDFF013C012802D1B4
:103A1000002CF8D100E004B9052010BD38B50546EA
:103A20004FF43020FFF7E8FF042813D10A4C236934
:103A300043F0020323616561236943F0400323617E
:103A40004FF43020FFF7D8FF236923F00203DB0493
:103A5000DB0C236138BD00BF0020024030B583B0CD
:103A600005460C46002301934FF40050FFF7C4FFB6
:103A7000042824D1134B1A6942F001021A61A3B23F
:103A80002B804FF40050FFF7B7FF042810D1023508
:103A90000195019B240C1C804FF40050FFF7ACFFF4
:103AA000084B1A6922F00102D204D20C1A6106E016
:103AB000044B1A6922F00102D204D20C1A6103B03D
:103AC00030BD00BF00200240704700BFFEE700BFCE
:103AD000FEE700BFFEE700BFFEE700BF704700BF84
:103AE000704700BF704700BF704700BF08B5154B57
:103AF0009A8892B21B8813F0010F22D012F0010FA6
:103B00001FD00822104BC3F880210E4A938823F05F
:103B100001031B041B0C9380938803F020039BB2CA
:103B2000002BF9D0FEF722FB084B984206D1FEF796
:103B300045FB0020FEF724FBFEF740FB0122044B6F
:103B40001A7008BD0028004000E100E07F5101002C
:103B5000BE01002038B50C4A138A23F001031B0470
:103B60001B0C1382FEF7E0FC0546084C208880B24F
:103B700001F06EF90146284601F0C2F9FFF718FB83
:103B80000023238038BD00BF002C01409C02002090
:103B900070B50D480121FEF72BFBA0B10A4C238A1A
:103BA00023F001031B041B0C2382084D4FF4006615
:103BB0002E61642000F08CFA6E61238823F00103EB
:103BC0001B041B0C238070BD00080040000801404E
:103BD00010B5534B1A685B6913F4007F00F08680C0
:103BE00012F4007F00F082804FF400724C4B5A6157
:103BF000FFF7DAFA0378012B69D14FF40062494BE1
:103C00005A61494B1B78012B05D0FFF705FB474B49
:103C10005B68984235D00022434B1A70FFF7FCFADC
:103C2000424B586010B1B0F57A7F04DBFFF7BCFA65
:103C30000023037010BD01F00FF900F07DFD024676
:103C40000B4600203A4900F0F5FE02460B460020E4
:103C5000384900F0EFFE02460B460020354900F0DF
:103C60000BFC00F0EFFF04464FF0824101F004FB33
:103C700010B92E4B9C6004E04FF082442B4B9C60AB
:103C800006E02A4B9C682046002101F0CDFA90B94D
:103C9000204600F051FD20A3D3E9002300F0A0FD51
:103CA00000F0B0FF80B2244B98851A8892B242F09F
:103CB00001021A801AE0204A138823F001031B0432
:103CC0001B0C13804FF40062164B1A610EE04FF488
:103CD00000021A4BC3F880204FF4006203F1C04386
:103CE00003F51C535A6101220F4B1A700C4B1A68D2
:103CF0005B6913F4807F0BD012F4807F08D04FF4FF
:103D00008072074B5A61094B1A88013292B21A80AD
:103D100010BD00BFAFF300800000000000388F40EE
:103D20000004014000080140940100209C02002092
:103D300000408F40000022400008004000E100E009
:103D400010B5174B1B6813F0020F25D000231A463D
:103D5000144830F8131089B20A440133642BF8D1A7
:103D6000114BA3FB02125109104A938901339BB2F4
:103D70009381092B0CD91446106901F069F80C499C
:103D800001F072F9FFF7B6FD0023A381236103E080
:103D9000064B1A690A441A610122014B5A6010BD90
:103DA00000000240CC0100201F85EB519C02002046
:103DB000DF4FD540064B1B6813F4003F06D04FF48D
:103DC0008032034B5A600122024B1A70704700BFC9
:103DD00000000240BC010020F8B50E4679B1471E34
:103DE000074C4025204617F8011FFFF755FC2046D9
:103DF0002946FFF755FC0028F9D0013EF2D1F8BD65
:103E00000038014010B5044601F0BAFA01462046D8
:103E1000FFF7E2FF10BD00BF2DE9F80100AFD31D91
:103E200003F4FC73ADEB030D6E46551C0123002417
:103E300003EB83035B000134AC42F9DB013B8342BB
:103E400038BF1846541E28D416444FF0000C4FF0CB
:103E50000108354606F801CC002C08DD43466246D1
:103E600003EB83035B000132A242F9D100E0434639
:103E70001A46834207D86346801A0133DBB2904268
:103E8000FAD205F8013C013E15F8013C303301F847
:103E9000013B013CB4F1FF3FDBD1BD46BDE8F80179
:103EA000704700BF70B588B001AC224D0FCD0FC474
:103EB0002B68237000248DF815408DF816408DF87E
:103EC00017408DF818408DF819408DF81A408DF87C
:103ED0001B408DF81C40FEF749F9174BA3FB00234C
:103EE000DD0A4FF4616202FB1505C3F3C72002A986
:103EF0000222FFF791FF114EA6FB05367609F0B2BC
:103F00000DF10B010222FFF787FFC6EB0616A5EBAA
:103F10008600C0B20DF10E010222FFF77DFF8DF881
:103F2000104001A801F02CFA014601A8FFF754FF48
:103F300008B070BD34570008C5B3A291898888883D
:103F4000036823F001031B041B0C036000230360C0
:103F500043608360C360364B984205D1083B5A6882
:103F600042F00F025A607047324B984205D11C3B19
:103F70005A6842F0F0025A6070472F4B984205D1C0
:103F8000303B5A6842F470625A6070472B4B98423B
:103F900005D1443B5A6842F470425A607047284B3E
:103FA000984205D1583B5A6842F470225A607047D3
:103FB000244B984205D16C3B5A6842F470025A6017
:103FC0007047214B984205D1803B5A6842F070629D
:103FD0005A6070471D4B984205D1083B5A6842F021
:103FE0000F025A6070471A4B984205D11C3B5A6821
:103FF00042F0F0025A607047164B984205D1303BB0
:104000005A6842F470625A607047134B984205D167
:10401000443B5A6842F470425A6070470F4B9842D2
:1040200004D1583B5A6842F470225A60704700BF6E
:10403000080002401C0002403000024044000240E0
:10404000580002406C000240800002400804024018
:104050001C04024030040240440402405804024060
:1040600010B4036823F4FF4323F070030C6A8A68DA
:1040700014430A6914434A6914438A691443CA6998
:1040800014434A6A14438A6A224313430360CB6889
:1040900043600B6883604B68C3605DF8044B7047F6
:1040A00021B1036843F0010303607047036823F004
:1040B00001031B041B0C0360704700BF1AB10368A7
:1040C000194301607047036823EA010101607047EA
:1040D00082B040000190019B5A1E0192002BFAD140
:1040E00002B0704782B040F6AC5303FB00F0019081
:1040F000019B5A1E0192002BFADC02B0704700BFF0
:1041000008B50E482021FEF707FD72B60C48FFF7F0
:1041100079FE0A4E4FF480654FF4FA743046294612
:10412000FEF7FAFC2046FFF7DDFF30462946FEF792
:10413000F5FC2046FFF7D6FFF0E700BF0010014076
:10414000E8570008F0B587B04FF44040FEF70EFF87
:104150004FF400700121FEF789FF0223ADF81430FF
:1041600000258DF81750464805A9FEF779FC009503
:104170008DF8045001248DF805404FF4602302931C
:1041800003958DF810403F4D28466946FFF756F9D4
:104190002846214622460723FFF7AEF92846214646
:1041A000FFF772F92846FFF787F92C462046FFF7FC
:1041B00089F90028FAD13348FFF788F9314C2046B5
:1041C000FFF78AF90028FAD12E480121FFF788F974
:1041D0006427002602252B4C20462946FFF7DAF9F2
:1041E0000028F9D02046FFF7D1F906447B1E13F0D2
:1041F000FF07F1D1244CA4FB06346409214D284665
:104200000021FFF76DF928460021FFF73DF9284608
:10421000FFF7E2F84FF400700021FEF727FFB4F536
:10422000FA7F03D20022194B9A7026E0A4F2F5120D
:1042300040F2E6339A4203D81E22144B9A701CE0D7
:10424000A4F2DD5240F212539A4203D828220F4BB7
:104250009A7012E0A4F6F12240F2BA239A4203D8EF
:1042600032220A4B9A7008E0A4F6AD54B4F5957F5B
:1042700094BF3C224622054B9A7007B0F0BD00BFA8
:1042800000080140002401401F85EB51B0020020CE
:1042900070B52C4B9B681C8A2B48FFF7B3FDFFF7CA
:1042A00001FE24B314F0FF0021D0240A254B1C7614
:1042B0000138C6B29A68197E46EA01211182187E39
:1042C000224CA51C29460322FFF7A6FD2048FFF734
:1042D00099FD2046FFF796FD304629460322FFF759
:1042E0009BFD1C48FFF78EFD2046FFF78BFD154B0D
:1042F0001A7ED2B29B8A9BB29A421CD2114B196988
:10430000187EDA6831F8100000EB800102EB8102C0
:104310009A601A7E0132D2B21A760C4CA11C03228A
:10432000FFF77AFD002363710B48FFF76BFD204612
:10433000FFF768FD70BD034BDA689A6000221A76B9
:10434000FFF7DEFEB00200202C5800089801002084
:104350005C5800087C5800089458000870B5002488
:104360002A4EE5B2FEF740FBA35D83421CD1284BE9
:1043700053F824201178C9B2264B19705178C9B26C
:1043800059701179C9B219715179C9B25971D1787D
:10439000C9B2D970916899609168D9601169196141
:1043A000928A92B29A8204E00135EDB201341D2C5A
:1043B000D7D1012D0DD9184C2846A11C0322FFF797
:1043C0002BFD1648FFF71EFD2046FFF71BFDFFF7EC
:1043D00097FE114CA61C284631460322FFF71CFD10
:1043E0000F48FFF70FFD2046FFF70CFD094B9878AB
:1043F00031460422FFF710FD0A48FFF703FD20466F
:10440000FFF700FDFFF744FF70BD00BFB85500087F
:1044100028000020B002002098010020AC580008BD
:10442000E45800081059000808B50548FFF7EAFCF1
:10443000FFF738FDFEF7FAFEFEF79EF908BD00BF54
:104440002C59000810B504460348FFF7DBFC034B6A
:104450009B68D868204410BD54590008B002002061
:1044600000487047B002002000487047C802002092
:1044700081F0004102E000BF83F0004330B54FEA15
:1044800041044FEA430594EA050F08BF90EA020F82
:104490001FBF54EA000C55EA020C7FEA645C7FEA15
:1044A000655C00F0E2804FEA5454D4EB5555B8BF38
:1044B0006D420CDD2C4480EA020281EA030382EAA9
:1044C000000083EA010180EA020281EA0303362D3B
:1044D00088BF30BD11F0004F4FEA01314FF4801C0E
:1044E0004CEA113102D0404261EB410113F0004F20
:1044F0004FEA03334CEA133302D0524263EB4303D7
:1045000094EA050F00F0A780A4F10104D5F1200E74
:104510000DDB02FA0EFC22FA05F2801841F10001CF
:1045200003FA0EF2801843FA05F359410EE0A5F1A3
:1045300020050EF1200E012A03FA0EFC28BF4CF0D4
:10454000020C43FA05F3C01851EBE37101F000458A
:1045500007D54FF0000EDCF1000C7EEB00006EEB97
:104560000101B1F5801F1BD3B1F5001F0CD3490821
:104570005FEA30004FEA3C0C04F101044FEA445278
:1045800012F5800F80F09A80BCF1004F08BF5FEAFF
:10459000500C50F1000041EB045141EA050130BDDF
:1045A0005FEA4C0C404141EB010111F4801FA4F182
:1045B0000104E9D191F0000F04BF01460020B1FAD7
:1045C00081F308BF2033A3F10B03B3F120020CDA0F
:1045D0000C3208DD02F1140CC2F10C0201FA0CF0ED
:1045E00021FA02F10CE002F11402D8BFC2F1200C52
:1045F00001FA02F120FA0CFCDCBF41EA0C01904008
:10460000E41AA2BF01EB0451294330BD6FEA040450
:104610001F3C1CDA0C340EDC04F11404C4F120023B
:1046200020FA04F001FA02F340EA030021FA04F34D
:1046300045EA030130BDC4F10C04C4F1200220FAA4
:1046400002F001FA04F340EA0300294630BD21FAE2
:1046500004F0294630BD94F0000F83F4801306BFA8
:1046600081F480110134013D4EE77FEA645C18BF9C
:104670007FEA655C29D094EA050F08BF90EA020F33
:1046800005D054EA000C04BF1946104630BD91EA2B
:10469000030F1EBF0021002030BD5FEA545C05D12E
:1046A0004000494128BF41F0004130BD14F580046D
:1046B0003CBF01F5801130BD01F0004545F0FE41E1
:1046C00041F470014FF0000030BD7FEA645C1ABF16
:1046D000194610467FEA655C1CBF0B46024650EA4D
:1046E000013406BF52EA033591EA030F41F4002179
:1046F00030BD00BF90F0000F04BF0021704730B5FF
:104700004FF4806404F132044FF000054FF00001D3
:1047100050E700BF90F0000F04BF0021704730B594
:104720004FF4806404F1320410F0004548BF404269
:104730004FF000013EE700BF42004FEAE2014FEABE
:1047400031014FEA02701FBF12F07F4393F07F4F99
:1047500081F06051704792F0000F14BF93F07F4FCB
:10476000704730B54FF4607401F0004521F000410E
:1047700020E700BF50EA010208BF704730B54FF094
:1047800000050AE050EA010208BF704730B511F099
:10479000004502D5404261EB41014FF4806404F1D1
:1047A00032045FEA915C3FF4DCAE4FF003025FEA53
:1047B000DC0C18BF03325FEADC0C18BF033202EBDB
:1047C000DC02C2F1200300FA03FC20FA02F001FA35
:1047D00003FE40EA0E0021FA02F11444C1E600BFD4
:1047E00070B54FF0FF0C4CF4E06C1CEA11541DBF87
:1047F0001CEA135594EA0C0F95EA0C0F00F0DEF852
:104800002C4481EA030621EA4C5123EA4C5350EA36
:10481000013518BF52EA033541F4801143F4801387
:1048200038D0A0FB02CE4FF00005E1FB02E506F018
:104830000042E0FB03E54FF00006E1FB03569CF06D
:10484000000F18BF4EF0010EA4F1FF04B6F5007F73
:1048500064F5407404D25FEA4E0E6D4146EB0606E5
:1048600042EAC62141EA55514FEAC52040EA5E506E
:104870004FEACE2EB4F1FD0C88BFBCF5E06F1ED818
:10488000BEF1004F08BF5FEA500E50F1000041EB4F
:10489000045170BD06F0004646EA010140EA0200FC
:1048A00081EA0301B4EB5C04C2BFD4EB0C0541EA1E
:1048B000045170BD41F480114FF0000E013C00F333
:1048C000AB8014F1360FDEBF002001F0004170BD57
:1048D000C4F10004203C35DA0C341BDC04F1140470
:1048E000C4F1200500FA05F320FA04F001FA05F2FC
:1048F00040EA020001F0004221F0004110EBD370C9
:1049000021FA04F642EB06015EEA430E08BF20EAF4
:10491000D37070BDC4F10C04C4F1200500FA04F397
:1049200020FA05F001FA04F240EA020001F0004129
:1049300010EBD37041F100015EEA430E08BF20EA9C
:10494000D37070BDC4F1200500FA05F24EEA020EE4
:1049500020FA04F301FA05F243EA020321FA04F013
:1049600001F0004121FA04F220EA020000EBD370CA
:104970005EEA430E08BF20EAD37070BD94F0000FCA
:104980000FD101F00046400041EB010111F4801FFE
:1049900008BF013CF7D041EA060195F0000F18BFAF
:1049A000704703F00046520043EB030313F4801FEB
:1049B00008BF013DF7D043EA0603704794EA0C0FA5
:1049C0000CEA135518BF95EA0C0F0CD050EA4106BB
:1049D00018BF52EA4306D1D181EA030101F0004138
:1049E0004FF0000070BD50EA410606BF1046194660
:1049F00052EA430619D094EA0C0F02D150EA01366C
:104A000013D195EA0C0F05D152EA03361CBF1046AC
:104A100019460AD181EA030101F0004141F0FE414B
:104A200041F470014FF0000070BD41F0FE4141F4CF
:104A3000780170BD70B54FF0FF0C4CF4E06C1CEACF
:104A400011541DBF1CEA135594EA0C0F95EA0C0F84
:104A500000F0A7F8A4EB050481EA030E52EA03353F
:104A60004FEA013100F088804FEA03334FF0805560
:104A700045EA131343EA12634FEA022245EA11158D
:104A800045EA10654FEA00260EF000419D4208BF3E
:104A9000964244F1FD0404F5407402D25B084FEAEB
:104AA0003202B61A65EB03055B084FEA32024FF497
:104AB00080104FF4002CB6EB020E75EB030E22BFF4
:104AC000B61A754640EA0C005B084FEA3202B6EBB4
:104AD000020E75EB030E22BFB61A754640EA5C0063
:104AE0005B084FEA3202B6EB020E75EB030E22BFF3
:104AF000B61A754640EA9C005B084FEA3202B6EBF4
:104B0000020E75EB030E22BFB61A754640EADC00B2
:104B100055EA060E18D04FEA051545EA16754FEA14
:104B200006164FEAC30343EA52734FEAC2025FEA32
:104B30001C1CC0D111F4801F0BD141EA00014FF0C1
:104B400000004FF0004CB6E711F4801F04BF014392
:104B50000020B4F1FD0C88BFBCF5E06F3FF6AFAEAE
:104B6000B5EB030C04BFB6EB020C5FEA500C50F13E
:104B7000000041EB045170BD0EF0004E4EEA1131C1
:104B800014EB5C04C2BFD4EB0C0541EA045170BDC8
:104B900041F480114FF0000E013C90E645EA060E0C
:104BA0008DE60CEA135594EA0C0F08BF95EA0C0F3A
:104BB0003FF43BAF94EA0C0F0AD150EA01347FF482
:104BC00034AF95EA0C0F7FF425AF104619462CE759
:104BD00095EA0C0F06D152EA03353FF4FDAE1046BC
:104BE000194622E750EA410618BF52EA43067FF40D
:104BF000C5AE50EA41047FF40DAF52EA43057FF49D
:104C0000EBAE12E74A0011D212F5001211D20DD507
:104C10006FF47873B3EB62520ED44FEAC12343F0C2
:104C2000004343EA505323FA02F070474FF000006C
:104C3000704750EA013002D14FF0FF3070474FF01B
:104C4000000070474FEA4102B2F1E04324BFB3F5E0
:104C5000001CDCF1FE5C0DD901F0004C4FEAC002F3
:104C60004CEA5070B2F1004F40EB830008BF20F0D7
:104C70000100704711F0804F21D113F13872BCBF91
:104C800001F00040704741F480114FEA5252C2F1E6
:104C90001802C2F1200C10FA0CF320FA02F018BF2F
:104CA00040F001004FEAC1234FEAD32303FA0CFC82
:104CB00040EA0C0023FA02F34FEA4303CCE77FEA11
:104CC000625307D150EA01331EBF4FF0FE4040F45B
:104CD0004000704701F0004040F0FE4040F400000A
:104CE000704700BF80F0004002E000BF81F000414B
:104CF00042001FBF5FEA410392EA030F7FEA226C82
:104D00007FEA236C6AD04FEA1262D2EB1363C1BF11
:104D1000D218414048404140B8BF5B42192B88BF80
:104D2000704710F0004F40F4000020F07F4018BFA3
:104D3000404211F0004F41F4000121F07F4118BFC3
:104D4000494292EA030F3FD0A2F1010241FA03FC6B
:104D500010EB0C00C3F1200301FA03F100F0004353
:104D600002D5494260EB4000B0F5000F13D3B0F11B
:104D7000807F06D340084FEA310102F10102FE2A8A
:104D800051D2B1F1004F40EBC25008BF20F00100FA
:104D900040EA03007047490040EB000010F4000FA8
:104DA000A2F10102EDD1B0FA80FCACF1080CB2EB3B
:104DB0000C0200FA0CF0AABF00EBC250524218439A
:104DC000BCBFD0401843704792F0000F81F400013F
:104DD00006BF80F400000132013BB5E74FEA410312
:104DE0007FEA226C18BF7FEA236C21D092EA030F7E
:104DF00004D092F0000F08BF0846704790EA010FF8
:104E00001CBF0020704712F07F4F04D1400028BF24
:104E100040F00040704712F100723CBF00F5000006
:104E2000704700F0004343F0FE4040F4000070473C
:104E30007FEA226216BF08467FEA236301464202E8
:104E400006BF5FEA412390EA010F40F480007047FB
:104E50004FF0000304E000BF10F0004348BF4042A1
:104E60005FEA000C08BF704743F0964301464FF0DD
:104E700000001CE050EA010208BF70474FF0000339
:104E80000AE000BF50EA010208BF704711F000437A
:104E900002D5404261EB41015FEA010C02BF84464A
:104EA0000146002043F0B64308BFA3F18053A3F5A9
:104EB0000003BCFA8CF2083AA3EBC25310DB01FAF0
:104EC00002FC634400FA02FCC2F12002BCF1004F74
:104ED00020FA02F243EB020008BF20F00100704705
:104EE00002F1200201FA02FCC2F1200250EA4C0059
:104EF00021FA02F243EB020008BF20EADC7070479F
:104F00004FF0FF0C1CEAD0521EBF1CEAD15392EAAC
:104F10000C0F93EA0C0F6FD01A4480EA010C400288
:104F200018BF5FEA41211ED04FF0006343EA5010E2
:104F300043EA5111A0FB01310CF00040B1F5000F24
:104F40003EBF490041EAD3715B0040EA010062F1D3
:104F50007F02FD2A1DD8B3F1004F40EBC25008BFBD
:104F600020F00100704790F0000F0CF0004C08BFDB
:104F700049024CEA502040EA51207F3AC2BFD2F1A8
:104F8000FF0340EAC250704740F400004FF00003B6
:104F9000013A5DDC12F1190FDCBF00F000407047F0
:104FA000C2F10002410021FA02F1C2F1200200FA2E
:104FB00002FC5FEA310040F1000053EA4C0308BFF5
:104FC00020EADC70704792F0000F00F0004C02BF46
:104FD000400010F4000F013AF9D040EA0C0093F0C1
:104FE000000F01F0004C02BF490011F4000F013B1B
:104FF000F9D041EA0C018FE70CEAD15392EA0C0F89
:1050000018BF93EA0C0F0AD030F0004C18BF31F0F3
:10501000004CD8D180EA010000F00040704790F0C9
:10502000000F17BF90F0004F084691F0000F91F06D
:10503000004F14D092EA0C0F01D142020FD193EA33
:105040000C0F03D14B0218BF084608D180EA0100BB
:1050500000F0004040F0FE4040F40000704740F097
:10506000FE4040F4400070474FF0FF0C1CEAD05265
:105070001EBF1CEAD15392EA0C0F93EA0C0F69D0C1
:10508000A2EB030280EA010C49024FEA402037D02C
:105090004FF0805343EA111143EA10130CF0004023
:1050A0008B4238BF5B0042F17D024FF4000C8B4213
:1050B00024BF5B1A40EA0C00B3EB510F24BFA3EBF3
:1050C000510340EA5C00B3EB910F24BFA3EB9103C3
:1050D00040EA9C00B3EBD10F24BFA3EBD10340EA1D
:1050E000DC001B0118BF5FEA1C1CE0D1FD2A3FF663
:1050F00050AF8B4240EBC25008BF20F00100704718
:105100000CF0004C4CEA50207F32C2BFD2F1FF03BA
:1051100040EAC250704740F400004FF00003013AEB
:1051200037E792F0000F00F0004C02BF400010F48F
:10513000000F013AF9D040EA0C0093F0000F01F0A3
:10514000004C02BF490011F4000F013BF9D041EAC5
:105150000C0195E70CEAD15392EA0C0F08D14202F8
:105160007FF47DAF93EA0C0F7FF470AF084676E7CB
:1051700093EA0C0F04D14B023FF44CAF08466EE7A4
:1051800030F0004C18BF31F0004CCAD130F0004272
:105190007FF45CAF31F000437FF43CAF5FE700BFCA
:1051A0004FF0FF3C06E000BF4FF0010C02E000BFF3
:1051B0004FF0010C4DF804CD4FEA40024FEA410395
:1051C0007FEA226C18BF7FEA236C11D001B052EA4B
:1051D000530C18BF90EA010F58BFB2EB030088BF11
:1051E000C81738BF6FEAE17018BF40F00100704780
:1051F0007FEA226C02D15FEA402C05D17FEA236C62
:10520000E4D15FEA412CE1D05DF8040B704700BFA8
:10521000844608466146FFE70FB5FFF7C9FF00283F
:1052200048BF10F1000F0FBD4DF808EDFFF7F4FF78
:105230000CBF012000205DF808FB00BF4DF808ED11
:10524000FFF7EAFF34BF012000205DF808FB00BF34
:105250004DF808EDFFF7E0FF94BF012000205DF856
:1052600008FB00BF4DF808EDFFF7D2FF94BF012007
:1052700000205DF808FB00BF4DF808EDFFF7C8FF00
:1052800034BF012000205DF808FB00BF4FEA400258
:10529000B2F1FE4F0FD34FF09E03B3EB12620DD964
:1052A0004FEA002343F0004310F0004F23FA02F0CE
:1052B00018BF404270474FF00000704712F1610F75
:1052C00001D1420205D110F0004008BF6FF000404C
:1052D00070474FF00000704742000ED2B2F1FE4F0F
:1052E0000BD34FF09E03B3EB126209D44FEA0023B5
:1052F00043F0004323FA02F070474FF0000070477C
:1053000012F1610F01D1420202D14FF0FF3070471C
:105310004FF00000704700BF032A70B428D940EA5C
:1053200001039B0713D005780C78A54224D1013ADC
:10533000002305E010F8015F11F8014FA5421BD1D1
:10534000934203F10103F5D1002070BC70470C4675
:10535000034625681E682146AE42184604F104043F
:1053600003F1040304D1043A032A18462146F0D875
:10537000002AD8D11046E8E7281B70BC704700BF50
:1053800020F0030110F00300C0F1000051F8043BCD
:1053900000F1040C4FEACC0C6FF000021CBF22FAA3
:1053A0000CF213434FF0010C4CEA0C2C4CEA0C4C61
:1053B000A3EB0C0222EA030212EACC1204BF51F85A
:1053C000043B0430F4D013F0FF0F1FBF013013F47F
:1053D0007F4F013013F47F0F18BF0130704700BFBB
:1053E0000D0A2053574954434820544F20424F4FF1
:1053F000544C4F414445522E2E2E00000D0A0D0AEA
:105400002070756D707320696E3A207374617465D5
:1054100020616C6C204F4646000000000D0A0D0A0A
:105420002070756D707320696E3A207374617465B5
:105430002041204F4E0000000D0A0D0A2070756DAE
:10544000707320696E3A2073746174652042204F36
:105450004E0000000D0A0D0A2070756D70732069F2
:105460006E3A20737461746520616C6C204F4E003D
:105470000D0A0D0A2070756D707320696E3A2073E5
:1054800074617465000000000D0A2070756D707302
:1054900020696E3A20776174657220686561746571
:1054A00072206C6576656C20636F6E74726F6C0031
:1054B00070756D7073204745542073746174650D69
:1054C0000A0000000D0A202070756D7073204F4E89
:1054D0002C20776174657220636F6E74726F6C201C
:1054E0004F4E00000D0A2070756D70733A20776181
:1054F000746572206C6576656C204E4F2073696709
:105500006E616C2C20726570656174206379636CC8
:10551000650000000D0A2070756D70733A206E6F83
:105520007720776174657220636F6E74726F6C2080
:105530006973204F4B2C2072657475726E000000E9
:105540000D0A2070756D70733A2070756D70732040
:105550004F46462C20776174657220636F6E7472BB
:105560006F6C204F4E0000000D0A2070756D707337
:105570003A204E4F207369676E616C2C2072656310
:105580006F6E66696720737461746520666F722040
:1055900070756D7073204F4E000000000D0A207072
:1055A000756D70733A20776174657220636F6E74E5
:1055B000726F6C204F464600040705151716141C21
:1055C0001E1F1D0D0F0E0C0E0F0D1D1F1E1C141681
:1055D00017150507060000007374702B000000000B
:1055E0000D0A0D0A20484F535420434D4420535771
:1055F0004954434820544F204E4558542053544555
:10560000502E2E2E200D0A0D0A0000007374702DEE
:105610000000000072737473000000000D0A0D0A90
:1056200020484F535420434D442052455345542E57
:105630002E2E0D0A0D0A00000D0A0D0A20484F53A8
:105640005420434D44204D4F544F522E2E2E0D0AC0
:105650000D0A000070696E00706F7500686561006A
:10566000626F6F7400000000000001000200030080
:10567000040000000000010002000000010003001F
:105680000400050006000700080000000D0A0D0ACE
:10569000206865617465723A20537461746520698D
:1056A00073204F4E000000000D0A0D0A206865614E
:1056B0007465723A205374617465206973204F4693
:1056C000460000000D0A206865617465723A205238
:1056D00065616C79204F55542050494E2C20302064
:1056E0002D204F46460000000D0A20686561746554
:1056F000723A2047455420737461746500000000BD
:105700000D0A206865617465723A20496E74656E91
:10571000742056616C0000000D0A20686561746594
:10572000723A2054656D7053656E736F72205661C6
:105730006C0000002020202030303A30303A3030E9
:1057400020202020000000000000000000000000D9
:10575000464D20202000454D2020200054202020B0
:105760000000574C20202000574520202000575390
:1057700020202000575420202000525020202000BC
:10578000535420202000495420202000525420202F
:1057900020000000504920202000504F20202000F1
:1057A0005354202020000044522020200000535059
:1057B00020202000000000004120202000000000E8
:1057C0000000000042202020000000000000000037
:1057D0004320202000000000000000004420202082
:1057E00000000000000000000D0A0D0A202D2D2DE4
:1057F0002D2D2D2D2D2D2D2D2D2D2D2D2D2D2D2DD9
:105800002D2D20454E4420414C4C2050524F4752A4
:10581000414D53202D2D2D2D2D2D2D2D2D2D2D2D6B
:105820002D2D2D2D2D2D2D2D2D2000000D0A0D0A95
:10583000202D2D2D2D2D2D2D20737769746368203B
:10584000746F20736D5F6E6578742070726F67720D
:10585000616D202D2D2D2D2D2D2D20000D0A207058
:1058600072673A2072657065617420737461727436
:10587000207072675F737465700000000D0A2070FD
:1058800072673A2072657065617420636F756E741B
:10589000657200000D0A20736D3A2070726F677296
:1058A000616D20696E646578200000000D0A20702B
:1058B00072673A2070726F6772616D204552524F65
:1058C00052206C6F61642066726F6D20696E646532
:1058D000782C20696E64657820746F206269672176
:1058E000200000000D0A207072673A2070726F6706
:1058F00072616D2073756363657373206C6F61648F
:105900002066726F6D20696E64657820000000006B
:105910000D0A207072673A20757365722074656D88
:10592000702076616C756520430000000D0A0D0A39
:10593000202D2D2D2D2D2D2D20736D5F656E642056
:1059400070726F6772616D202D2D2D2D2D2D2D20E4
:10595000000000000D0A0D0A202D2D2D2D2D2D2DBE
:1059600020736D5F73746172742070726F677261FF
:0C5970006D202D2D2D2D2D2D2D20000043
:10597C0000366E010000000000000000010203046C
:10598C0006070809010000000D0A200000000000B5
:10599C000000000000000000AC00002030000020DF
:1059AC00000000000000000048000020480000201B
:1059BC00685600080600000000000000000000000F
:1059CC00000000000A0000000000000000000003BE
:1059DC000000000000000000640000000000000057
:1059EC0001320000000001010A0000006009000003
:1059FC00000000000000000000010000000000009A
:105A0C003C0000001E01000000000000000100002E
:105A1C000000000028000000000000000000000052
:105A2C0000000000C4000020C400002074560008D0
:105A3C000C0000000000000000000000000000004E
:105A4C000A0000000000000000000003010000003C
:105A5C00000000000F00000000000000000000002B
:105A6C0001000100280000005802000000000000A6
:105A7C0001280000010001003C0000003C00000077
:105A8C000000000001280000000001013C000000A3
:105A9C003C000000140500000000000000010000A4
:105AAC00000000001E0000000000000000000003C9
:105ABC0001000000000000002800000000000000B1
:105ACC0001280000000001006400000078000000C4
:105ADC00000000000000000000010101C8000000EF
:105AEC001E00000003080000000000000102030477
:105AFC00010203040607080902040608000000411D
:105B0C000000803F010000000D0A20000000000092
:085B1C00000000000000000081
:0400000508002000CF
:00000001FF
